{
  "_format": "hh-sol-artifact-1",
  "contractName": "AaveV3Actions",
  "sourceName": "contracts/action/AaveV3Actions.sol",
  "abi": [
    {
      "inputs": [
        {
          "internalType": "address",
          "name": "_aaveV3Pool",
          "type": "address"
        },
        {
          "internalType": "address",
          "name": "_WETH",
          "type": "address"
        },
        {
          "internalType": "address",
          "name": "_priceOracle",
          "type": "address"
        }
      ],
      "stateMutability": "nonpayable",
      "type": "constructor"
    },
    {
      "inputs": [],
      "name": "HealthFactorNotValid",
      "type": "error"
    },
    {
      "inputs": [],
      "name": "InvalidPercentage",
      "type": "error"
    },
    {
      "inputs": [],
      "name": "InvalidTokenGetterID",
      "type": "error"
    },
    {
      "inputs": [],
      "name": "ZeroAmountNotValid",
      "type": "error"
    },
    {
      "inputs": [],
      "name": "PERCENTAGE_FACTOR",
      "outputs": [
        {
          "internalType": "uint256",
          "name": "",
          "type": "uint256"
        }
      ],
      "stateMutability": "view",
      "type": "function"
    },
    {
      "inputs": [],
      "name": "WETH",
      "outputs": [
        {
          "internalType": "address",
          "name": "",
          "type": "address"
        }
      ],
      "stateMutability": "view",
      "type": "function"
    },
    {
      "inputs": [
        {
          "internalType": "address",
          "name": "wallet",
          "type": "address"
        },
        {
          "internalType": "address",
          "name": "asset",
          "type": "address"
        },
        {
          "internalType": "uint256",
          "name": "amount",
          "type": "uint256"
        },
        {
          "internalType": "uint256",
          "name": "interestRateMode",
          "type": "uint256"
        }
      ],
      "name": "borrow",
      "outputs": [
        {
          "components": [
            {
              "internalType": "address",
              "name": "target",
              "type": "address"
            },
            {
              "internalType": "uint256",
              "name": "value",
              "type": "uint256"
            },
            {
              "internalType": "bytes",
              "name": "data",
              "type": "bytes"
            }
          ],
          "internalType": "struct IAction.PluginExecution[]",
          "name": "",
          "type": "tuple[]"
        }
      ],
      "stateMutability": "view",
      "type": "function"
    },
    {
      "inputs": [
        {
          "internalType": "address",
          "name": "wallet",
          "type": "address"
        },
        {
          "internalType": "uint256",
          "name": "amount",
          "type": "uint256"
        },
        {
          "internalType": "uint256",
          "name": "interestRateMode",
          "type": "uint256"
        }
      ],
      "name": "borrowETH",
      "outputs": [
        {
          "components": [
            {
              "internalType": "address",
              "name": "target",
              "type": "address"
            },
            {
              "internalType": "uint256",
              "name": "value",
              "type": "uint256"
            },
            {
              "internalType": "bytes",
              "name": "data",
              "type": "bytes"
            }
          ],
          "internalType": "struct IAction.PluginExecution[]",
          "name": "",
          "type": "tuple[]"
        }
      ],
      "stateMutability": "view",
      "type": "function"
    },
    {
      "inputs": [
        {
          "internalType": "address",
          "name": "wallet",
          "type": "address"
        },
        {
          "internalType": "address",
          "name": "asset",
          "type": "address"
        },
        {
          "internalType": "uint256",
          "name": "percentage",
          "type": "uint256"
        },
        {
          "internalType": "uint256",
          "name": "interestRateMode",
          "type": "uint256"
        }
      ],
      "name": "borrowPercentageOfAvailable",
      "outputs": [
        {
          "components": [
            {
              "internalType": "address",
              "name": "target",
              "type": "address"
            },
            {
              "internalType": "uint256",
              "name": "value",
              "type": "uint256"
            },
            {
              "internalType": "bytes",
              "name": "data",
              "type": "bytes"
            }
          ],
          "internalType": "struct IAction.PluginExecution[]",
          "name": "",
          "type": "tuple[]"
        }
      ],
      "stateMutability": "view",
      "type": "function"
    },
    {
      "inputs": [
        {
          "internalType": "address",
          "name": "wallet",
          "type": "address"
        },
        {
          "internalType": "uint256",
          "name": "percentage",
          "type": "uint256"
        },
        {
          "internalType": "uint256",
          "name": "interestRateMode",
          "type": "uint256"
        }
      ],
      "name": "borrowPercentageOfAvailableETH",
      "outputs": [
        {
          "components": [
            {
              "internalType": "address",
              "name": "target",
              "type": "address"
            },
            {
              "internalType": "uint256",
              "name": "value",
              "type": "uint256"
            },
            {
              "internalType": "bytes",
              "name": "data",
              "type": "bytes"
            }
          ],
          "internalType": "struct IAction.PluginExecution[]",
          "name": "",
          "type": "tuple[]"
        }
      ],
      "stateMutability": "view",
      "type": "function"
    },
    {
      "inputs": [
        {
          "internalType": "address",
          "name": "wallet",
          "type": "address"
        },
        {
          "internalType": "address",
          "name": "asset",
          "type": "address"
        },
        {
          "internalType": "uint256",
          "name": "targetHealthFactor",
          "type": "uint256"
        },
        {
          "internalType": "uint256",
          "name": "interestRateMode",
          "type": "uint256"
        }
      ],
      "name": "changeDebtToHealthFactor",
      "outputs": [
        {
          "components": [
            {
              "internalType": "address",
              "name": "target",
              "type": "address"
            },
            {
              "internalType": "uint256",
              "name": "value",
              "type": "uint256"
            },
            {
              "internalType": "bytes",
              "name": "data",
              "type": "bytes"
            }
          ],
          "internalType": "struct IAction.PluginExecution[]",
          "name": "",
          "type": "tuple[]"
        }
      ],
      "stateMutability": "view",
      "type": "function"
    },
    {
      "inputs": [
        {
          "internalType": "address",
          "name": "wallet",
          "type": "address"
        },
        {
          "internalType": "uint256",
          "name": "targetHealthFactor",
          "type": "uint256"
        },
        {
          "internalType": "uint256",
          "name": "interestRateMode",
          "type": "uint256"
        }
      ],
      "name": "changeDebtToHealthFactorETH",
      "outputs": [
        {
          "components": [
            {
              "internalType": "address",
              "name": "target",
              "type": "address"
            },
            {
              "internalType": "uint256",
              "name": "value",
              "type": "uint256"
            },
            {
              "internalType": "bytes",
              "name": "data",
              "type": "bytes"
            }
          ],
          "internalType": "struct IAction.PluginExecution[]",
          "name": "",
          "type": "tuple[]"
        }
      ],
      "stateMutability": "view",
      "type": "function"
    },
    {
      "inputs": [
        {
          "internalType": "address",
          "name": "wallet",
          "type": "address"
        },
        {
          "internalType": "address",
          "name": "asset",
          "type": "address"
        },
        {
          "internalType": "uint256",
          "name": "targetHealthFactor",
          "type": "uint256"
        }
      ],
      "name": "changeSupplyToHealthFactor",
      "outputs": [
        {
          "components": [
            {
              "internalType": "address",
              "name": "target",
              "type": "address"
            },
            {
              "internalType": "uint256",
              "name": "value",
              "type": "uint256"
            },
            {
              "internalType": "bytes",
              "name": "data",
              "type": "bytes"
            }
          ],
          "internalType": "struct IAction.PluginExecution[]",
          "name": "",
          "type": "tuple[]"
        }
      ],
      "stateMutability": "view",
      "type": "function"
    },
    {
      "inputs": [
        {
          "internalType": "address",
          "name": "wallet",
          "type": "address"
        },
        {
          "internalType": "uint256",
          "name": "targetHealthFactor",
          "type": "uint256"
        }
      ],
      "name": "changeSupplyToHealthFactorETH",
      "outputs": [
        {
          "components": [
            {
              "internalType": "address",
              "name": "target",
              "type": "address"
            },
            {
              "internalType": "uint256",
              "name": "value",
              "type": "uint256"
            },
            {
              "internalType": "bytes",
              "name": "data",
              "type": "bytes"
            }
          ],
          "internalType": "struct IAction.PluginExecution[]",
          "name": "",
          "type": "tuple[]"
        }
      ],
      "stateMutability": "view",
      "type": "function"
    },
    {
      "inputs": [
        {
          "internalType": "bytes4",
          "name": "selector",
          "type": "bytes4"
        },
        {
          "internalType": "bytes",
          "name": "params",
          "type": "bytes"
        }
      ],
      "name": "getTokenForSelector",
      "outputs": [
        {
          "internalType": "address",
          "name": "",
          "type": "address"
        }
      ],
      "stateMutability": "view",
      "type": "function"
    },
    {
      "inputs": [],
      "name": "oracle",
      "outputs": [
        {
          "internalType": "contract IAaveOracle",
          "name": "",
          "type": "address"
        }
      ],
      "stateMutability": "view",
      "type": "function"
    },
    {
      "inputs": [],
      "name": "pool",
      "outputs": [
        {
          "internalType": "address",
          "name": "",
          "type": "address"
        }
      ],
      "stateMutability": "view",
      "type": "function"
    },
    {
      "inputs": [
        {
          "internalType": "address",
          "name": "wallet",
          "type": "address"
        },
        {
          "internalType": "address",
          "name": "asset",
          "type": "address"
        },
        {
          "internalType": "uint256",
          "name": "amount",
          "type": "uint256"
        },
        {
          "internalType": "uint256",
          "name": "interestRateMode",
          "type": "uint256"
        }
      ],
      "name": "repay",
      "outputs": [
        {
          "components": [
            {
              "internalType": "address",
              "name": "target",
              "type": "address"
            },
            {
              "internalType": "uint256",
              "name": "value",
              "type": "uint256"
            },
            {
              "internalType": "bytes",
              "name": "data",
              "type": "bytes"
            }
          ],
          "internalType": "struct IAction.PluginExecution[]",
          "name": "",
          "type": "tuple[]"
        }
      ],
      "stateMutability": "view",
      "type": "function"
    },
    {
      "inputs": [
        {
          "internalType": "address",
          "name": "wallet",
          "type": "address"
        },
        {
          "internalType": "uint256",
          "name": "amount",
          "type": "uint256"
        },
        {
          "internalType": "uint256",
          "name": "interestRateMode",
          "type": "uint256"
        }
      ],
      "name": "repayETH",
      "outputs": [
        {
          "components": [
            {
              "internalType": "address",
              "name": "target",
              "type": "address"
            },
            {
              "internalType": "uint256",
              "name": "value",
              "type": "uint256"
            },
            {
              "internalType": "bytes",
              "name": "data",
              "type": "bytes"
            }
          ],
          "internalType": "struct IAction.PluginExecution[]",
          "name": "",
          "type": "tuple[]"
        }
      ],
      "stateMutability": "view",
      "type": "function"
    },
    {
      "inputs": [
        {
          "internalType": "address",
          "name": "wallet",
          "type": "address"
        },
        {
          "internalType": "address",
          "name": "asset",
          "type": "address"
        },
        {
          "internalType": "uint256",
          "name": "percentage",
          "type": "uint256"
        },
        {
          "internalType": "uint256",
          "name": "interestRateMode",
          "type": "uint256"
        }
      ],
      "name": "repayPercentageOfDebt",
      "outputs": [
        {
          "components": [
            {
              "internalType": "address",
              "name": "target",
              "type": "address"
            },
            {
              "internalType": "uint256",
              "name": "value",
              "type": "uint256"
            },
            {
              "internalType": "bytes",
              "name": "data",
              "type": "bytes"
            }
          ],
          "internalType": "struct IAction.PluginExecution[]",
          "name": "",
          "type": "tuple[]"
        }
      ],
      "stateMutability": "view",
      "type": "function"
    },
    {
      "inputs": [
        {
          "internalType": "address",
          "name": "wallet",
          "type": "address"
        },
        {
          "internalType": "uint256",
          "name": "percentage",
          "type": "uint256"
        },
        {
          "internalType": "uint256",
          "name": "interestRateMode",
          "type": "uint256"
        }
      ],
      "name": "repayPercentageOfDebtETH",
      "outputs": [
        {
          "components": [
            {
              "internalType": "address",
              "name": "target",
              "type": "address"
            },
            {
              "internalType": "uint256",
              "name": "value",
              "type": "uint256"
            },
            {
              "internalType": "bytes",
              "name": "data",
              "type": "bytes"
            }
          ],
          "internalType": "struct IAction.PluginExecution[]",
          "name": "",
          "type": "tuple[]"
        }
      ],
      "stateMutability": "view",
      "type": "function"
    },
    {
      "inputs": [
        {
          "internalType": "address",
          "name": "wallet",
          "type": "address"
        },
        {
          "internalType": "address",
          "name": "asset",
          "type": "address"
        },
        {
          "internalType": "uint256",
          "name": "amount",
          "type": "uint256"
        }
      ],
      "name": "supply",
      "outputs": [
        {
          "components": [
            {
              "internalType": "address",
              "name": "target",
              "type": "address"
            },
            {
              "internalType": "uint256",
              "name": "value",
              "type": "uint256"
            },
            {
              "internalType": "bytes",
              "name": "data",
              "type": "bytes"
            }
          ],
          "internalType": "struct IAction.PluginExecution[]",
          "name": "",
          "type": "tuple[]"
        }
      ],
      "stateMutability": "view",
      "type": "function"
    },
    {
      "inputs": [
        {
          "internalType": "address",
          "name": "wallet",
          "type": "address"
        },
        {
          "internalType": "uint256",
          "name": "amount",
          "type": "uint256"
        }
      ],
      "name": "supplyETH",
      "outputs": [
        {
          "components": [
            {
              "internalType": "address",
              "name": "target",
              "type": "address"
            },
            {
              "internalType": "uint256",
              "name": "value",
              "type": "uint256"
            },
            {
              "internalType": "bytes",
              "name": "data",
              "type": "bytes"
            }
          ],
          "internalType": "struct IAction.PluginExecution[]",
          "name": "",
          "type": "tuple[]"
        }
      ],
      "stateMutability": "view",
      "type": "function"
    },
    {
      "inputs": [
        {
          "internalType": "address",
          "name": "wallet",
          "type": "address"
        },
        {
          "internalType": "address",
          "name": "asset",
          "type": "address"
        },
        {
          "internalType": "uint256",
          "name": "percentage",
          "type": "uint256"
        }
      ],
      "name": "supplyPercentageOfBalance",
      "outputs": [
        {
          "components": [
            {
              "internalType": "address",
              "name": "target",
              "type": "address"
            },
            {
              "internalType": "uint256",
              "name": "value",
              "type": "uint256"
            },
            {
              "internalType": "bytes",
              "name": "data",
              "type": "bytes"
            }
          ],
          "internalType": "struct IAction.PluginExecution[]",
          "name": "",
          "type": "tuple[]"
        }
      ],
      "stateMutability": "view",
      "type": "function"
    },
    {
      "inputs": [
        {
          "internalType": "address",
          "name": "wallet",
          "type": "address"
        },
        {
          "internalType": "uint256",
          "name": "percentage",
          "type": "uint256"
        }
      ],
      "name": "supplyPercentageOfBalanceETH",
      "outputs": [
        {
          "components": [
            {
              "internalType": "address",
              "name": "target",
              "type": "address"
            },
            {
              "internalType": "uint256",
              "name": "value",
              "type": "uint256"
            },
            {
              "internalType": "bytes",
              "name": "data",
              "type": "bytes"
            }
          ],
          "internalType": "struct IAction.PluginExecution[]",
          "name": "",
          "type": "tuple[]"
        }
      ],
      "stateMutability": "view",
      "type": "function"
    },
    {
      "inputs": [
        {
          "internalType": "bytes4",
          "name": "interfaceId",
          "type": "bytes4"
        }
      ],
      "name": "supportsInterface",
      "outputs": [
        {
          "internalType": "bool",
          "name": "",
          "type": "bool"
        }
      ],
      "stateMutability": "pure",
      "type": "function"
    },
    {
      "inputs": [
        {
          "internalType": "bytes4",
          "name": "",
          "type": "bytes4"
        }
      ],
      "name": "tokenGetterIDs",
      "outputs": [
        {
          "internalType": "uint8",
          "name": "",
          "type": "uint8"
        }
      ],
      "stateMutability": "view",
      "type": "function"
    },
    {
      "inputs": [
        {
          "internalType": "address",
          "name": "wallet",
          "type": "address"
        },
        {
          "internalType": "address",
          "name": "asset",
          "type": "address"
        },
        {
          "internalType": "uint256",
          "name": "amount",
          "type": "uint256"
        }
      ],
      "name": "withdraw",
      "outputs": [
        {
          "components": [
            {
              "internalType": "address",
              "name": "target",
              "type": "address"
            },
            {
              "internalType": "uint256",
              "name": "value",
              "type": "uint256"
            },
            {
              "internalType": "bytes",
              "name": "data",
              "type": "bytes"
            }
          ],
          "internalType": "struct IAction.PluginExecution[]",
          "name": "",
          "type": "tuple[]"
        }
      ],
      "stateMutability": "view",
      "type": "function"
    },
    {
      "inputs": [
        {
          "internalType": "address",
          "name": "wallet",
          "type": "address"
        },
        {
          "internalType": "uint256",
          "name": "amount",
          "type": "uint256"
        }
      ],
      "name": "withdrawETH",
      "outputs": [
        {
          "components": [
            {
              "internalType": "address",
              "name": "target",
              "type": "address"
            },
            {
              "internalType": "uint256",
              "name": "value",
              "type": "uint256"
            },
            {
              "internalType": "bytes",
              "name": "data",
              "type": "bytes"
            }
          ],
          "internalType": "struct IAction.PluginExecution[]",
          "name": "",
          "type": "tuple[]"
        }
      ],
      "stateMutability": "view",
      "type": "function"
    }
  ],
  "bytecode": "0x60e060405234801561001057600080fd5b506040516149633803806149638339818101604052810190610032919061092b565b8273ffffffffffffffffffffffffffffffffffffffff1660808173ffffffffffffffffffffffffffffffffffffffff16815250508173ffffffffffffffffffffffffffffffffffffffff1660a08173ffffffffffffffffffffffffffffffffffffffff16815250508073ffffffffffffffffffffffffffffffffffffffff1660c08173ffffffffffffffffffffffffffffffffffffffff16815250506001600080635770aafe60e01b7bffffffffffffffffffffffffffffffffffffffffffffffffffffffff19167bffffffffffffffffffffffffffffffffffffffffffffffffffffffff1916815260200190815260200160002060006101000a81548160ff021916908360ff1602179055506001600080634782f77960e01b7bffffffffffffffffffffffffffffffffffffffffffffffffffffffff19167bffffffffffffffffffffffffffffffffffffffffffffffffffffffff1916815260200190815260200160002060006101000a81548160ff021916908360ff1602179055506001600080632b933c6260e01b7bffffffffffffffffffffffffffffffffffffffffffffffffffffffff19167bffffffffffffffffffffffffffffffffffffffffffffffffffffffff1916815260200190815260200160002060006101000a81548160ff021916908360ff16021790555060016000806389cbe65660e01b7bffffffffffffffffffffffffffffffffffffffffffffffffffffffff19167bffffffffffffffffffffffffffffffffffffffffffffffffffffffff1916815260200190815260200160002060006101000a81548160ff021916908360ff160217905550600160008063fc1c1e1160e01b7bffffffffffffffffffffffffffffffffffffffffffffffffffffffff19167bffffffffffffffffffffffffffffffffffffffffffffffffffffffff1916815260200190815260200160002060006101000a81548160ff021916908360ff1602179055506001600080637d9cec4d60e01b7bffffffffffffffffffffffffffffffffffffffffffffffffffffffff19167bffffffffffffffffffffffffffffffffffffffffffffffffffffffff1916815260200190815260200160002060006101000a81548160ff021916908360ff160217905550600160008063e42fb6ca60e01b7bffffffffffffffffffffffffffffffffffffffffffffffffffffffff19167bffffffffffffffffffffffffffffffffffffffffffffffffffffffff1916815260200190815260200160002060006101000a81548160ff021916908360ff160217905550600160008063865eac3d60e01b7bffffffffffffffffffffffffffffffffffffffffffffffffffffffff19167bffffffffffffffffffffffffffffffffffffffffffffffffffffffff1916815260200190815260200160002060006101000a81548160ff021916908360ff160217905550600160008063d963b5b160e01b7bffffffffffffffffffffffffffffffffffffffffffffffffffffffff19167bffffffffffffffffffffffffffffffffffffffffffffffffffffffff1916815260200190815260200160002060006101000a81548160ff021916908360ff1602179055506002600080634af8c8ce60e01b7bffffffffffffffffffffffffffffffffffffffffffffffffffffffff19167bffffffffffffffffffffffffffffffffffffffffffffffffffffffff1916815260200190815260200160002060006101000a81548160ff021916908360ff160217905550600260008063c7b94b1e60e01b7bffffffffffffffffffffffffffffffffffffffffffffffffffffffff19167bffffffffffffffffffffffffffffffffffffffffffffffffffffffff1916815260200190815260200160002060006101000a81548160ff021916908360ff1602179055506002600080630c0a769b60e01b7bffffffffffffffffffffffffffffffffffffffffffffffffffffffff19167bffffffffffffffffffffffffffffffffffffffffffffffffffffffff1916815260200190815260200160002060006101000a81548160ff021916908360ff160217905550600260008063d9caed1260e01b7bffffffffffffffffffffffffffffffffffffffffffffffffffffffff19167bffffffffffffffffffffffffffffffffffffffffffffffffffffffff1916815260200190815260200160002060006101000a81548160ff021916908360ff160217905550600360008063fbf3773960e01b7bffffffffffffffffffffffffffffffffffffffffffffffffffffffff19167bffffffffffffffffffffffffffffffffffffffffffffffffffffffff1916815260200190815260200160002060006101000a81548160ff021916908360ff1602179055506003600080634900274960e01b7bffffffffffffffffffffffffffffffffffffffffffffffffffffffff19167bffffffffffffffffffffffffffffffffffffffffffffffffffffffff1916815260200190815260200160002060006101000a81548160ff021916908360ff1602179055506003600080630bd8343460e01b7bffffffffffffffffffffffffffffffffffffffffffffffffffffffff19167bffffffffffffffffffffffffffffffffffffffffffffffffffffffff1916815260200190815260200160002060006101000a81548160ff021916908360ff160217905550600360008063c1a8638660e01b7bffffffffffffffffffffffffffffffffffffffffffffffffffffffff19167bffffffffffffffffffffffffffffffffffffffffffffffffffffffff1916815260200190815260200160002060006101000a81548160ff021916908360ff16021790555060036000806396d4959e60e01b7bffffffffffffffffffffffffffffffffffffffffffffffffffffffff19167bffffffffffffffffffffffffffffffffffffffffffffffffffffffff1916815260200190815260200160002060006101000a81548160ff021916908360ff16021790555050505061097e565b600080fd5b600073ffffffffffffffffffffffffffffffffffffffff82169050919050565b60006108f8826108cd565b9050919050565b610908816108ed565b811461091357600080fd5b50565b600081519050610925816108ff565b92915050565b600080600060608486031215610944576109436108c8565b5b600061095286828701610916565b935050602061096386828701610916565b925050604061097486828701610916565b9150509250925092565b60805160a05160c051613ef2610a71600039600081816110380152818161207a0152818161293b0152612d180152600081816108810152818161099601528181610d8301528181610dcd01528181610e3001528181610ecc015281816110db01528181611279015281816112c30152818161164801528181611a1b01528181611a5101528181611e0001528181611f940152818161249201526127900152600081816107c301528181611fd7015281816121e30152818161230c015281816123d301528181612552015281816126160152818161282b01528181612a9301528181612b3d0152612c080152613ef26000f3fe608060405234801561001057600080fd5b50600436106101735760003560e01c8063865eac3d116100de578063c7b94b1e11610097578063e42fb6ca11610071578063e42fb6ca14610532578063ee01e5e714610562578063fbf3773914610580578063fc1c1e11146105b057610173565b8063c7b94b1e146104a2578063d963b5b1146104d2578063d9caed121461050257610173565b8063865eac3d1461039457806389cbe656146103c457806396d4959e146103f4578063ad5c464814610424578063b1d6136814610442578063c1a863861461047257610173565b8063490027491161013057806349002749146102865780634af8c8ce146102b65780635581161b146102e65780635770aafe146103165780637d9cec4d146103465780637dc0d1d01461037657610173565b806301ffc9a7146101785780630bd83434146101a85780630c0a769b146101d857806316f0115b146102085780632b933c62146102265780634782f77914610256575b600080fd5b610192600480360381019061018d9190612f0f565b6105e0565b60405161019f9190612f57565b60405180910390f35b6101c260048036038101906101bd9190613006565b61062a565b6040516101cf919061322d565b60405180910390f35b6101f260048036038101906101ed919061324f565b6106cc565b6040516101ff919061322d565b60405180910390f35b6102106107c1565b60405161021d91906132b1565b60405180910390f35b610240600480360381019061023b91906132cc565b6107e5565b60405161024d919061322d565b60405180910390f35b610270600480360381019061026b919061331f565b6108fa565b60405161027d919061322d565b60405180910390f35b6102a0600480360381019061029b9190613006565b610a0d565b6040516102ad919061322d565b60405180910390f35b6102d060048036038101906102cb919061324f565b610b04565b6040516102dd919061322d565b60405180910390f35b61030060048036038101906102fb9190613494565b610ba6565b60405161030d91906132b1565b60405180910390f35b610330600480360381019061032b919061331f565b610cc0565b60405161033d919061322d565b60405180910390f35b610360600480360381019061035b919061331f565b610e1c565b60405161036d919061322d565b60405180910390f35b61037e611036565b60405161038b919061354f565b60405180910390f35b6103ae60048036038101906103a991906132cc565b61105a565b6040516103bb919061322d565b60405180910390f35b6103de60048036038101906103d991906132cc565b6111b6565b6040516103eb919061322d565b60405180910390f35b61040e60048036038101906104099190613006565b611314565b60405161041b919061322d565b60405180910390f35b61042c611646565b60405161043991906132b1565b60405180910390f35b61045c60048036038101906104579190612f0f565b61166a565b6040516104699190613586565b60405180910390f35b61048c60048036038101906104879190613006565b61168a565b604051610499919061322d565b60405180910390f35b6104bc60048036038101906104b7919061324f565b6117c8565b6040516104c9919061322d565b60405180910390f35b6104ec60048036038101906104e791906132cc565b611a07565b6040516104f9919061322d565b60405180910390f35b61051c6004803603810190610517919061324f565b611cb2565b604051610529919061322d565b60405180910390f35b61054c600480360381019061054791906132cc565b611d7e565b604051610559919061322d565b60405180910390f35b61056a611e3e565b60405161057791906135b0565b60405180910390f35b61059a60048036038101906105959190613006565b611e44565b6040516105a7919061322d565b60405180910390f35b6105ca60048036038101906105c5919061331f565b611f12565b6040516105d7919061322d565b60405180910390f35b6000807bffffffffffffffffffffffffffffffffffffffffffffffffffffffff1916827bffffffffffffffffffffffffffffffffffffffffffffffffffffffff1916149050919050565b60608260008103610667576040517f3461dc9a00000000000000000000000000000000000000000000000000000000815260040160405180910390fd5b836127108111156106a4576040517f1f3b85d300000000000000000000000000000000000000000000000000000000815260040160405180910390fd5b60006106b1888888611fd2565b90506106bf88888388611e44565b9350505050949350505050565b60608160008103610709576040517f3461dc9a00000000000000000000000000000000000000000000000000000000815260040160405180910390fd5b6000600267ffffffffffffffff81111561072657610725613369565b5b60405190808252806020026020018201604052801561075f57816020015b61074c612e6c565b8152602001906001900390816107445790505b50905061076c85856121d7565b816000815181106107805761077f6135cb565b5b6020026020010181905250610796868686612296565b816001815181106107aa576107a96135cb565b5b602002602001018190525080925050509392505050565b7f000000000000000000000000000000000000000000000000000000000000000081565b60608260008103610822576040517f3461dc9a00000000000000000000000000000000000000000000000000000000815260040160405180910390fd5b6000600267ffffffffffffffff81111561083f5761083e613369565b5b60405190808252806020026020018201604052801561087857816020015b610865612e6c565b81526020019060019003908161085d5790505b5090506108a7867f0000000000000000000000000000000000000000000000000000000000000000878761235b565b816000815181106108bb576108ba6135cb565b5b60200260200101819052506108cf85612423565b816001815181106108e3576108e26135cb565b5b602002602001018190525080925050509392505050565b60608160008103610937576040517f3461dc9a00000000000000000000000000000000000000000000000000000000815260040160405180910390fd5b6000600267ffffffffffffffff81111561095457610953613369565b5b60405190808252806020026020018201604052801561098d57816020015b61097a612e6c565b8152602001906001900390816109725790505b5090506109bb857f0000000000000000000000000000000000000000000000000000000000000000866124df565b816000815181106109cf576109ce6135cb565b5b60200260200101819052506109e384612423565b816001815181106109f7576109f66135cb565b5b6020026020010181905250809250505092915050565b60608260008103610a4a576040517f3461dc9a00000000000000000000000000000000000000000000000000000000815260040160405180910390fd5b6000600267ffffffffffffffff811115610a6757610a66613369565b5b604051908082528060200260200182016040528015610aa057816020015b610a8d612e6c565b815260200190600190039081610a855790505b509050610aad86866121d7565b81600081518110610ac157610ac06135cb565b5b6020026020010181905250610ad8878787876125a1565b81600181518110610aec57610aeb6135cb565b5b60200260200101819052508092505050949350505050565b60608160008103610b41576040517f3461dc9a00000000000000000000000000000000000000000000000000000000815260040160405180910390fd5b82612710811115610b7e576040517f1f3b85d300000000000000000000000000000000000000000000000000000000815260040160405180910390fd5b6000610b8d8787876000612666565b9050610b9a8787836106cc565b93505050509392505050565b600080600080857bffffffffffffffffffffffffffffffffffffffffffffffffffffffff19167bffffffffffffffffffffffffffffffffffffffffffffffffffffffff1916815260200190815260200160002060009054906101000a900460ff16905060008160ff161480610c1e575060038160ff16115b15610c55576040517fae563a1f00000000000000000000000000000000000000000000000000000000815260040160405180910390fd5b60018160ff1603610c6a576000915050610cba565b60028160ff1603610c9957600083806020019051810190610c8b919061364d565b509150508092505050610cba565b600083806020019051810190610caf91906136a0565b505091505080925050505b92915050565b60608160008103610cfd576040517f3461dc9a00000000000000000000000000000000000000000000000000000000815260040160405180910390fd5b6000600367ffffffffffffffff811115610d1a57610d19613369565b5b604051908082528060200260200182016040528015610d5357816020015b610d40612e6c565b815260200190600190039081610d385790505b509050610d5f8461272c565b81600081518110610d7357610d726135cb565b5b6020026020010181905250610da87f0000000000000000000000000000000000000000000000000000000000000000856121d7565b81600181518110610dbc57610dbb6135cb565b5b6020026020010181905250610df2857f000000000000000000000000000000000000000000000000000000000000000086612296565b81600281518110610e0657610e056135cb565b5b6020026020010181905250809250505092915050565b6060610e27826127dc565b600080610e55857f000000000000000000000000000000000000000000000000000000000000000086612821565b915091508015610f915760008203610ec557600067ffffffffffffffff811115610e8257610e81613369565b5b604051908082528060200260200182016040528015610ebb57816020015b610ea8612e6c565b815260200190600190039081610ea05790505b5092505050611030565b6000610ef07f0000000000000000000000000000000000000000000000000000000000000000612a8f565b905060008173ffffffffffffffffffffffffffffffffffffffff166370a08231886040518263ffffffff1660e01b8152600401610f2d91906132b1565b602060405180830381865afa158015610f4a573d6000803e3d6000fd5b505050506040513d601f19601f82011682018060405250810190610f6e9190613707565b905080841115610f7c578093505b610f8687856108fa565b945050505050611030565b60008573ffffffffffffffffffffffffffffffffffffffff1631905080831115610fb9578092505b6000830361102057600067ffffffffffffffff811115610fdc57610fdb613369565b5b60405190808252806020026020018201604052801561101557816020015b611002612e6c565b815260200190600190039081610ffa5790505b509350505050611030565b61102a8684610cc0565b93505050505b92915050565b7f000000000000000000000000000000000000000000000000000000000000000081565b60608260008103611097576040517f3461dc9a00000000000000000000000000000000000000000000000000000000815260040160405180910390fd5b836127108111156110d4576040517f1f3b85d300000000000000000000000000000000000000000000000000000000815260040160405180910390fd5b60006111007f000000000000000000000000000000000000000000000000000000000000000086612b38565b905060008173ffffffffffffffffffffffffffffffffffffffff166370a08231896040518263ffffffff1660e01b815260040161113d91906132b1565b602060405180830381865afa15801561115a573d6000803e3d6000fd5b505050506040513d601f19601f8201168201806040525081019061117e9190613707565b9050600061271088836111919190613763565b61119b91906137d4565b90506111a88982896111b6565b955050505050509392505050565b606082600081036111f3576040517f3461dc9a00000000000000000000000000000000000000000000000000000000815260040160405180910390fd5b6000600367ffffffffffffffff8111156112105761120f613369565b5b60405190808252806020026020018201604052801561124957816020015b611236612e6c565b81526020019060019003908161122e5790505b5090506112558561272c565b81600081518110611269576112686135cb565b5b602002602001018190525061129e7f0000000000000000000000000000000000000000000000000000000000000000866121d7565b816001815181106112b2576112b16135cb565b5b60200260200101819052506112e9867f000000000000000000000000000000000000000000000000000000000000000087876125a1565b816002815181106112fd576112fc6135cb565b5b602002602001018190525080925050509392505050565b606061131f836127dc565b60008061132d878787612bfe565b9150915080156115c75760006113438786612b38565b905060008173ffffffffffffffffffffffffffffffffffffffff166370a082318a6040518263ffffffff1660e01b815260040161138091906132b1565b602060405180830381865afa15801561139d573d6000803e3d6000fd5b505050506040513d601f19601f820116820180604052508101906113c19190613707565b8873ffffffffffffffffffffffffffffffffffffffff166370a082318b6040518263ffffffff1660e01b81526004016113fa91906132b1565b602060405180830381865afa158015611417573d6000803e3d6000fd5b505050506040513d601f19601f8201168201806040525081019061143b9190613707565b116114bf578173ffffffffffffffffffffffffffffffffffffffff166370a082318a6040518263ffffffff1660e01b815260040161147991906132b1565b602060405180830381865afa158015611496573d6000803e3d6000fd5b505050506040513d601f19601f820116820180604052508101906114ba9190613707565b61153a565b8773ffffffffffffffffffffffffffffffffffffffff166370a082318a6040518263ffffffff1660e01b81526004016114f891906132b1565b602060405180830381865afa158015611515573d6000803e3d6000fd5b505050506040513d601f19601f820116820180604052508101906115399190613707565b5b905080841115611548578093505b600084036115b057600067ffffffffffffffff81111561156b5761156a613369565b5b6040519080825280602002602001820160405280156115a457816020015b611591612e6c565b8152602001906001900390816115895790505b5094505050505061163e565b6115bc89898689610a0d565b94505050505061163e565b6000820361162d57600067ffffffffffffffff8111156115ea576115e9613369565b5b60405190808252806020026020018201604052801561162357816020015b611610612e6c565b8152602001906001900390816116085790505b509250505061163e565b61163987878487611e44565b925050505b949350505050565b7f000000000000000000000000000000000000000000000000000000000000000081565b60006020528060005260406000206000915054906101000a900460ff1681565b606082600081036116c7576040517f3461dc9a00000000000000000000000000000000000000000000000000000000815260040160405180910390fd5b83612710811115611704576040517f1f3b85d300000000000000000000000000000000000000000000000000000000815260040160405180910390fd5b60006117108786612b38565b905060008173ffffffffffffffffffffffffffffffffffffffff166370a082318a6040518263ffffffff1660e01b815260040161174d91906132b1565b602060405180830381865afa15801561176a573d6000803e3d6000fd5b505050506040513d601f19601f8201168201806040525081019061178e9190613707565b9050600061271088836117a19190613763565b6117ab91906137d4565b90506117b98a8a838a610a0d565b95505050505050949350505050565b60606117d3826127dc565b6000806117e1868686612821565b9150915080156118fe576000820361185157600067ffffffffffffffff81111561180e5761180d613369565b5b60405190808252806020026020018201604052801561184757816020015b611834612e6c565b81526020019060019003908161182c5790505b5092505050611a00565b600061185c86612a8f565b905060008173ffffffffffffffffffffffffffffffffffffffff166370a08231896040518263ffffffff1660e01b815260040161189991906132b1565b602060405180830381865afa1580156118b6573d6000803e3d6000fd5b505050506040513d601f19601f820116820180604052508101906118da9190613707565b9050808411156118e8578093505b6118f3888886611cb2565b945050505050611a00565b60008573ffffffffffffffffffffffffffffffffffffffff166370a08231886040518263ffffffff1660e01b815260040161193991906132b1565b602060405180830381865afa158015611956573d6000803e3d6000fd5b505050506040513d601f19601f8201168201806040525081019061197a9190613707565b905080831115611988578092505b600083036119ef57600067ffffffffffffffff8111156119ab576119aa613369565b5b6040519080825280602002602001820160405280156119e457816020015b6119d1612e6c565b8152602001906001900390816119c95790505b509350505050611a00565b6119fa8787856106cc565b93505050505b9392505050565b6060611a12836127dc565b600080611a40867f000000000000000000000000000000000000000000000000000000000000000087612bfe565b915091508015611c35576000611a767f000000000000000000000000000000000000000000000000000000000000000086612b38565b905060008173ffffffffffffffffffffffffffffffffffffffff166370a08231896040518263ffffffff1660e01b8152600401611ab391906132b1565b602060405180830381865afa158015611ad0573d6000803e3d6000fd5b505050506040513d601f19601f82011682018060405250810190611af49190613707565b8873ffffffffffffffffffffffffffffffffffffffff163111611b90578173ffffffffffffffffffffffffffffffffffffffff166370a08231896040518263ffffffff1660e01b8152600401611b4a91906132b1565b602060405180830381865afa158015611b67573d6000803e3d6000fd5b505050506040513d601f19601f82011682018060405250810190611b8b9190613707565b611ba9565b8773ffffffffffffffffffffffffffffffffffffffff16315b905080841115611bb7578093505b60008403611c1f57600067ffffffffffffffff811115611bda57611bd9613369565b5b604051908082528060200260200182016040528015611c1357816020015b611c00612e6c565b815260200190600190039081611bf85790505b50945050505050611cab565b611c2a8885886111b6565b945050505050611cab565b60008203611c9b57600067ffffffffffffffff811115611c5857611c57613369565b5b604051908082528060200260200182016040528015611c9157816020015b611c7e612e6c565b815260200190600190039081611c765790505b5092505050611cab565b611ca68683866107e5565b925050505b9392505050565b60608160008103611cef576040517f3461dc9a00000000000000000000000000000000000000000000000000000000815260040160405180910390fd5b6000600167ffffffffffffffff811115611d0c57611d0b613369565b5b604051908082528060200260200182016040528015611d4557816020015b611d32612e6c565b815260200190600190039081611d2a5790505b509050611d538686866124df565b81600081518110611d6757611d666135cb565b5b602002602001018190525080925050509392505050565b60608260008103611dbb576040517f3461dc9a00000000000000000000000000000000000000000000000000000000815260040160405180910390fd5b83612710811115611df8576040517f1f3b85d300000000000000000000000000000000000000000000000000000000815260040160405180910390fd5b6000611e25877f000000000000000000000000000000000000000000000000000000000000000088611fd2565b9050611e328782876107e5565b93505050509392505050565b61271081565b60608260008103611e81576040517f3461dc9a00000000000000000000000000000000000000000000000000000000815260040160405180910390fd5b6000600167ffffffffffffffff811115611e9e57611e9d613369565b5b604051908082528060200260200182016040528015611ed757816020015b611ec4612e6c565b815260200190600190039081611ebc5790505b509050611ee68787878761235b565b81600081518110611efa57611ef96135cb565b5b60200260200101819052508092505050949350505050565b60608160008103611f4f576040517f3461dc9a00000000000000000000000000000000000000000000000000000000815260040160405180910390fd5b82612710811115611f8c576040517f1f3b85d300000000000000000000000000000000000000000000000000000000815260040160405180910390fd5b6000611fbb867f0000000000000000000000000000000000000000000000000000000000000000876001612666565b9050611fc78682610cc0565b935050505092915050565b6000807f000000000000000000000000000000000000000000000000000000000000000073ffffffffffffffffffffffffffffffffffffffff1663bf92857c866040518263ffffffff1660e01b815260040161202e91906132b1565b60c060405180830381865afa15801561204b573d6000803e3d6000fd5b505050506040513d601f19601f8201168201806040525081019061206f9190613805565b5050509250505060007f000000000000000000000000000000000000000000000000000000000000000073ffffffffffffffffffffffffffffffffffffffff1663b3596f07866040518263ffffffff1660e01b81526004016120d191906132b1565b602060405180830381865afa1580156120ee573d6000803e3d6000fd5b505050506040513d601f19601f820116820180604052508101906121129190613707565b905060008573ffffffffffffffffffffffffffffffffffffffff1663313ce5676040518163ffffffff1660e01b8152600401602060405180830381865afa158015612161573d6000803e3d6000fd5b505050506040513d601f19601f8201168201806040525081019061218591906138be565b60ff16905060008282600a61219a9190613a1e565b856121a59190613763565b6121af91906137d4565b905061271086826121c09190613763565b6121ca91906137d4565b9450505050509392505050565b6121df612e6c565b60007f000000000000000000000000000000000000000000000000000000000000000083604051602401612214929190613a69565b60405160208183030381529060405263095ea7b360e01b6020820180517bffffffffffffffffffffffffffffffffffffffffffffffffffffffff8381831617835250505050905060405180606001604052808573ffffffffffffffffffffffffffffffffffffffff168152602001600081526020018281525091505092915050565b61229e612e6c565b600083838660006040516024016122b89493929190613adb565b60405160208183030381529060405263617ba03760e01b6020820180517bffffffffffffffffffffffffffffffffffffffffffffffffffffffff8381831617835250505050905060405180606001604052807f000000000000000000000000000000000000000000000000000000000000000073ffffffffffffffffffffffffffffffffffffffff16815260200160008152602001828152509150509392505050565b612363612e6c565b600084848460008960405160240161237f959493929190613b20565b60405160208183030381529060405263a415bcad60e01b6020820180517bffffffffffffffffffffffffffffffffffffffffffffffffffffffff8381831617835250505050905060405180606001604052807f000000000000000000000000000000000000000000000000000000000000000073ffffffffffffffffffffffffffffffffffffffff1681526020016000815260200182815250915050949350505050565b61242b612e6c565b60008260405160240161243e91906135b0565b604051602081830303815290604052632e1a7d4d60e01b6020820180517bffffffffffffffffffffffffffffffffffffffffffffffffffffffff8381831617835250505050905060405180606001604052807f000000000000000000000000000000000000000000000000000000000000000073ffffffffffffffffffffffffffffffffffffffff1681526020016000815260200182815250915050919050565b6124e7612e6c565b60008383866040516024016124fe93929190613b73565b6040516020818303038152906040526369328dec60e01b6020820180517bffffffffffffffffffffffffffffffffffffffffffffffffffffffff8381831617835250505050905060405180606001604052807f000000000000000000000000000000000000000000000000000000000000000073ffffffffffffffffffffffffffffffffffffffff16815260200160008152602001828152509150509392505050565b6125a9612e6c565b6000848484886040516024016125c29493929190613baa565b60405160208183030381529060405263573ade8160e01b6020820180517bffffffffffffffffffffffffffffffffffffffffffffffffffffffff8381831617835250505050905060405180606001604052807f000000000000000000000000000000000000000000000000000000000000000073ffffffffffffffffffffffffffffffffffffffff1681526020016000815260200182815250915050949350505050565b600080826126ed578473ffffffffffffffffffffffffffffffffffffffff166370a08231876040518263ffffffff1660e01b81526004016126a791906132b1565b602060405180830381865afa1580156126c4573d6000803e3d6000fd5b505050506040513d601f19601f820116820180604052508101906126e89190613707565b612706565b8573ffffffffffffffffffffffffffffffffffffffff16315b905061271084826127179190613763565b61272191906137d4565b915050949350505050565b612734612e6c565b600060405160240160405160208183030381529060405263d0e30db060e01b6020820180517bffffffffffffffffffffffffffffffffffffffffffffffffffffffff8381831617835250505050905060405180606001604052807f000000000000000000000000000000000000000000000000000000000000000073ffffffffffffffffffffffffffffffffffffffff16815260200184815260200182815250915050919050565b670de0b6b3a764000081101561281e576040517fb0a8c6c300000000000000000000000000000000000000000000000000000000815260040160405180910390fd5b50565b60008060008060007f000000000000000000000000000000000000000000000000000000000000000073ffffffffffffffffffffffffffffffffffffffff1663bf92857c896040518263ffffffff1660e01b815260040161288291906132b1565b60c060405180830381865afa15801561289f573d6000803e3d6000fd5b505050506040513d601f19601f820116820180604052508101906128c39190613805565b505093505092509250600081612710670de0b6b3a7640000858a6128e79190613763565b6128f191906137d4565b6128fb9190613763565b61290591906137d4565b9050600084821015612928576001955081856129219190613bef565b9050612937565b84826129349190613bef565b90505b60007f000000000000000000000000000000000000000000000000000000000000000073ffffffffffffffffffffffffffffffffffffffff1663b3596f078b6040518263ffffffff1660e01b815260040161299291906132b1565b602060405180830381865afa1580156129af573d6000803e3d6000fd5b505050506040513d601f19601f820116820180604052508101906129d39190613707565b905060008a73ffffffffffffffffffffffffffffffffffffffff1663313ce5676040518163ffffffff1660e01b8152600401602060405180830381865afa158015612a22573d6000803e3d6000fd5b505050506040513d601f19601f82011682018060405250810190612a4691906138be565b60ff16905060008211612a5a576000612a7e565b8181600a612a689190613a1e565b84612a739190613763565b612a7d91906137d4565b5b985050505050505050935093915050565b60007f000000000000000000000000000000000000000000000000000000000000000073ffffffffffffffffffffffffffffffffffffffff166335ea6a75836040518263ffffffff1660e01b8152600401612aea91906132b1565b6101e060405180830381865afa158015612b08573d6000803e3d6000fd5b505050506040513d601f19601f82011682018060405250810190612b2c9190613e8e565b61010001519050919050565b6000807f000000000000000000000000000000000000000000000000000000000000000073ffffffffffffffffffffffffffffffffffffffff166335ea6a75856040518263ffffffff1660e01b8152600401612b9491906132b1565b6101e060405180830381865afa158015612bb2573d6000803e3d6000fd5b505050506040513d601f19601f82011682018060405250810190612bd69190613e8e565b905060018303612bee57806101200151915050612bf8565b8061014001519150505b92915050565b60008060008060007f000000000000000000000000000000000000000000000000000000000000000073ffffffffffffffffffffffffffffffffffffffff1663bf92857c896040518263ffffffff1660e01b8152600401612c5f91906132b1565b60c060405180830381865afa158015612c7c573d6000803e3d6000fd5b505050506040513d601f19601f82011682018060405250810190612ca09190613805565b505093505092509250600086670de0b6b3a76400006127108487612cc49190613763565b612cce91906137d4565b612cd89190613763565b612ce291906137d4565b9050600083821015612d0557600195508184612cfe9190613bef565b9050612d14565b8382612d119190613bef565b90505b60007f000000000000000000000000000000000000000000000000000000000000000073ffffffffffffffffffffffffffffffffffffffff1663b3596f078b6040518263ffffffff1660e01b8152600401612d6f91906132b1565b602060405180830381865afa158015612d8c573d6000803e3d6000fd5b505050506040513d601f19601f82011682018060405250810190612db09190613707565b905060008a73ffffffffffffffffffffffffffffffffffffffff1663313ce5676040518163ffffffff1660e01b8152600401602060405180830381865afa158015612dff573d6000803e3d6000fd5b505050506040513d601f19601f82011682018060405250810190612e2391906138be565b60ff16905060008211612e37576000612e5b565b8181600a612e459190613a1e565b84612e509190613763565b612e5a91906137d4565b5b985050505050505050935093915050565b6040518060600160405280600073ffffffffffffffffffffffffffffffffffffffff16815260200160008152602001606081525090565b6000604051905090565b600080fd5b600080fd5b60007fffffffff0000000000000000000000000000000000000000000000000000000082169050919050565b612eec81612eb7565b8114612ef757600080fd5b50565b600081359050612f0981612ee3565b92915050565b600060208284031215612f2557612f24612ead565b5b6000612f3384828501612efa565b91505092915050565b60008115159050919050565b612f5181612f3c565b82525050565b6000602082019050612f6c6000830184612f48565b92915050565b600073ffffffffffffffffffffffffffffffffffffffff82169050919050565b6000612f9d82612f72565b9050919050565b612fad81612f92565b8114612fb857600080fd5b50565b600081359050612fca81612fa4565b92915050565b6000819050919050565b612fe381612fd0565b8114612fee57600080fd5b50565b60008135905061300081612fda565b92915050565b600080600080608085870312156130205761301f612ead565b5b600061302e87828801612fbb565b945050602061303f87828801612fbb565b935050604061305087828801612ff1565b925050606061306187828801612ff1565b91505092959194509250565b600081519050919050565b600082825260208201905092915050565b6000819050602082019050919050565b6130a281612f92565b82525050565b6130b181612fd0565b82525050565b600081519050919050565b600082825260208201905092915050565b60005b838110156130f15780820151818401526020810190506130d6565b60008484015250505050565b6000601f19601f8301169050919050565b6000613119826130b7565b61312381856130c2565b93506131338185602086016130d3565b61313c816130fd565b840191505092915050565b600060608301600083015161315f6000860182613099565b50602083015161317260208601826130a8565b506040830151848203604086015261318a828261310e565b9150508091505092915050565b60006131a38383613147565b905092915050565b6000602082019050919050565b60006131c38261306d565b6131cd8185613078565b9350836020820285016131df85613089565b8060005b8581101561321b57848403895281516131fc8582613197565b9450613207836131ab565b925060208a019950506001810190506131e3565b50829750879550505050505092915050565b6000602082019050818103600083015261324781846131b8565b905092915050565b60008060006060848603121561326857613267612ead565b5b600061327686828701612fbb565b935050602061328786828701612fbb565b925050604061329886828701612ff1565b9150509250925092565b6132ab81612f92565b82525050565b60006020820190506132c660008301846132a2565b92915050565b6000806000606084860312156132e5576132e4612ead565b5b60006132f386828701612fbb565b935050602061330486828701612ff1565b925050604061331586828701612ff1565b9150509250925092565b6000806040838503121561333657613335612ead565b5b600061334485828601612fbb565b925050602061335585828601612ff1565b9150509250929050565b600080fd5b600080fd5b7f4e487b7100000000000000000000000000000000000000000000000000000000600052604160045260246000fd5b6133a1826130fd565b810181811067ffffffffffffffff821117156133c0576133bf613369565b5b80604052505050565b60006133d3612ea3565b90506133df8282613398565b919050565b600067ffffffffffffffff8211156133ff576133fe613369565b5b613408826130fd565b9050602081019050919050565b82818337600083830152505050565b6000613437613432846133e4565b6133c9565b90508281526020810184848401111561345357613452613364565b5b61345e848285613415565b509392505050565b600082601f83011261347b5761347a61335f565b5b813561348b848260208601613424565b91505092915050565b600080604083850312156134ab576134aa612ead565b5b60006134b985828601612efa565b925050602083013567ffffffffffffffff8111156134da576134d9612eb2565b5b6134e685828601613466565b9150509250929050565b6000819050919050565b600061351561351061350b84612f72565b6134f0565b612f72565b9050919050565b6000613527826134fa565b9050919050565b60006135398261351c565b9050919050565b6135498161352e565b82525050565b60006020820190506135646000830184613540565b92915050565b600060ff82169050919050565b6135808161356a565b82525050565b600060208201905061359b6000830184613577565b92915050565b6135aa81612fd0565b82525050565b60006020820190506135c560008301846135a1565b92915050565b7f4e487b7100000000000000000000000000000000000000000000000000000000600052603260045260246000fd5b600061360582612f72565b9050919050565b613615816135fa565b811461362057600080fd5b50565b6000815190506136328161360c565b92915050565b60008151905061364781612fda565b92915050565b60008060006060848603121561366657613665612ead565b5b600061367486828701613623565b935050602061368586828701613623565b925050604061369686828701613638565b9150509250925092565b600080600080608085870312156136ba576136b9612ead565b5b60006136c887828801613623565b94505060206136d987828801613623565b93505060406136ea87828801613638565b92505060606136fb87828801613638565b91505092959194509250565b60006020828403121561371d5761371c612ead565b5b600061372b84828501613638565b91505092915050565b7f4e487b7100000000000000000000000000000000000000000000000000000000600052601160045260246000fd5b600061376e82612fd0565b915061377983612fd0565b925082820261378781612fd0565b9150828204841483151761379e5761379d613734565b5b5092915050565b7f4e487b7100000000000000000000000000000000000000000000000000000000600052601260045260246000fd5b60006137df82612fd0565b91506137ea83612fd0565b9250826137fa576137f96137a5565b5b828204905092915050565b60008060008060008060c0878903121561382257613821612ead565b5b600061383089828a01613638565b965050602061384189828a01613638565b955050604061385289828a01613638565b945050606061386389828a01613638565b935050608061387489828a01613638565b92505060a061388589828a01613638565b9150509295509295509295565b61389b8161356a565b81146138a657600080fd5b50565b6000815190506138b881613892565b92915050565b6000602082840312156138d4576138d3612ead565b5b60006138e2848285016138a9565b91505092915050565b60008160011c9050919050565b6000808291508390505b60018511156139425780860481111561391e5761391d613734565b5b600185161561392d5780820291505b808102905061393b856138eb565b9450613902565b94509492505050565b60008261395b5760019050613a17565b816139695760009050613a17565b816001811461397f5760028114613989576139b8565b6001915050613a17565b60ff84111561399b5761399a613734565b5b8360020a9150848211156139b2576139b1613734565b5b50613a17565b5060208310610133831016604e8410600b84101617156139ed5782820a9050838111156139e8576139e7613734565b5b613a17565b6139fa84848460016138f8565b92509050818404811115613a1157613a10613734565b5b81810290505b9392505050565b6000613a2982612fd0565b9150613a3483612fd0565b9250613a617fffffffffffffffffffffffffffffffffffffffffffffffffffffffffffffffff848461394b565b905092915050565b6000604082019050613a7e60008301856132a2565b613a8b60208301846135a1565b9392505050565b6000819050919050565b600061ffff82169050919050565b6000613ac5613ac0613abb84613a92565b6134f0565b613a9c565b9050919050565b613ad581613aaa565b82525050565b6000608082019050613af060008301876132a2565b613afd60208301866135a1565b613b0a60408301856132a2565b613b176060830184613acc565b95945050505050565b600060a082019050613b3560008301886132a2565b613b4260208301876135a1565b613b4f60408301866135a1565b613b5c6060830185613acc565b613b6960808301846132a2565b9695505050505050565b6000606082019050613b8860008301866132a2565b613b9560208301856135a1565b613ba260408301846132a2565b949350505050565b6000608082019050613bbf60008301876132a2565b613bcc60208301866135a1565b613bd960408301856135a1565b613be660608301846132a2565b95945050505050565b6000613bfa82612fd0565b9150613c0583612fd0565b9250828203905081811115613c1d57613c1c613734565b5b92915050565b600080fd5b600060208284031215613c3e57613c3d613c23565b5b613c4860206133c9565b90506000613c5884828501613638565b60008301525092915050565b60006fffffffffffffffffffffffffffffffff82169050919050565b613c8981613c64565b8114613c9457600080fd5b50565b600081519050613ca681613c80565b92915050565b600064ffffffffff82169050919050565b613cc681613cac565b8114613cd157600080fd5b50565b600081519050613ce381613cbd565b92915050565b613cf281613a9c565b8114613cfd57600080fd5b50565b600081519050613d0f81613ce9565b92915050565b600081519050613d2481612fa4565b92915050565b60006101e08284031215613d4157613d40613c23565b5b613d4c6101e06133c9565b90506000613d5c84828501613c28565b6000830152506020613d7084828501613c97565b6020830152506040613d8484828501613c97565b6040830152506060613d9884828501613c97565b6060830152506080613dac84828501613c97565b60808301525060a0613dc084828501613c97565b60a08301525060c0613dd484828501613cd4565b60c08301525060e0613de884828501613d00565b60e083015250610100613dfd84828501613d15565b61010083015250610120613e1384828501613d15565b61012083015250610140613e2984828501613d15565b61014083015250610160613e3f84828501613d15565b61016083015250610180613e5584828501613c97565b610180830152506101a0613e6b84828501613c97565b6101a0830152506101c0613e8184828501613c97565b6101c08301525092915050565b60006101e08284031215613ea557613ea4612ead565b5b6000613eb384828501613d2a565b9150509291505056fea2646970667358221220fbd44b8869fdb915fa3e7453aca0f7374d0822f73e62996c545a97fee3b0145d64736f6c634300081c0033",
  "linkReferences": {},
  "deployedLinkReferences": {}
}