{
  "_format": "hh-sol-artifact-1",
  "contractName": "HealthFactorCondition",
  "sourceName": "contracts/condition/HealthFactorCondition.sol",
  "abi": [
    {
      "inputs": [
        {
          "internalType": "address",
          "name": "_pool",
          "type": "address"
        }
      ],
      "stateMutability": "nonpayable",
      "type": "constructor"
    },
    {
      "inputs": [],
      "name": "ConditionAlreadyExist",
      "type": "error"
    },
    {
      "inputs": [],
      "name": "ConditionAlreadyInUseOfAutomation",
      "type": "error"
    },
    {
      "inputs": [],
      "name": "ConditionAlreadyInUseOfStrategy",
      "type": "error"
    },
    {
      "inputs": [],
      "name": "ConditionDoesNotExist",
      "type": "error"
    },
    {
      "inputs": [],
      "name": "ConditionIsInUse",
      "type": "error"
    },
    {
      "inputs": [],
      "name": "ConditionNotInUseOfAutomation",
      "type": "error"
    },
    {
      "inputs": [],
      "name": "ConditionNotInUseOfStrategy",
      "type": "error"
    },
    {
      "inputs": [],
      "name": "HealthFactorLowerThanMinimum",
      "type": "error"
    },
    {
      "inputs": [],
      "name": "InvalidComparison",
      "type": "error"
    },
    {
      "inputs": [],
      "name": "InvalidID",
      "type": "error"
    },
    {
      "anonymous": false,
      "inputs": [
        {
          "indexed": true,
          "internalType": "address",
          "name": "wallet",
          "type": "address"
        },
        {
          "indexed": true,
          "internalType": "uint32",
          "name": "id",
          "type": "uint32"
        },
        {
          "indexed": false,
          "internalType": "uint32",
          "name": "automation",
          "type": "uint32"
        }
      ],
      "name": "AutomationAdded",
      "type": "event"
    },
    {
      "anonymous": false,
      "inputs": [
        {
          "indexed": true,
          "internalType": "address",
          "name": "wallet",
          "type": "address"
        },
        {
          "indexed": true,
          "internalType": "uint32",
          "name": "id",
          "type": "uint32"
        },
        {
          "indexed": false,
          "internalType": "uint32",
          "name": "automation",
          "type": "uint32"
        }
      ],
      "name": "AutomationRemoved",
      "type": "event"
    },
    {
      "anonymous": false,
      "inputs": [
        {
          "indexed": false,
          "internalType": "uint32",
          "name": "id",
          "type": "uint32"
        },
        {
          "indexed": false,
          "internalType": "address",
          "name": "wallet",
          "type": "address"
        },
        {
          "components": [
            {
              "internalType": "uint256",
              "name": "healthFactor",
              "type": "uint256"
            },
            {
              "internalType": "enum IHealthFactorCondition.Comparison",
              "name": "comparison",
              "type": "uint8"
            },
            {
              "internalType": "bool",
              "name": "updateable",
              "type": "bool"
            }
          ],
          "indexed": false,
          "internalType": "struct IHealthFactorCondition.Condition",
          "name": "condition",
          "type": "tuple"
        }
      ],
      "name": "ConditionAdded",
      "type": "event"
    },
    {
      "anonymous": false,
      "inputs": [
        {
          "indexed": true,
          "internalType": "address",
          "name": "wallet",
          "type": "address"
        },
        {
          "indexed": true,
          "internalType": "uint32",
          "name": "id",
          "type": "uint32"
        }
      ],
      "name": "ConditionDeleted",
      "type": "event"
    },
    {
      "anonymous": false,
      "inputs": [
        {
          "indexed": true,
          "internalType": "address",
          "name": "wallet",
          "type": "address"
        },
        {
          "indexed": true,
          "internalType": "uint32",
          "name": "id",
          "type": "uint32"
        },
        {
          "indexed": false,
          "internalType": "uint32",
          "name": "strategy",
          "type": "uint32"
        }
      ],
      "name": "StrategyAdded",
      "type": "event"
    },
    {
      "anonymous": false,
      "inputs": [
        {
          "indexed": true,
          "internalType": "address",
          "name": "wallet",
          "type": "address"
        },
        {
          "indexed": true,
          "internalType": "uint32",
          "name": "id",
          "type": "uint32"
        },
        {
          "indexed": false,
          "internalType": "uint32",
          "name": "strategy",
          "type": "uint32"
        }
      ],
      "name": "StrategyRemoved",
      "type": "event"
    },
    {
      "inputs": [
        {
          "internalType": "uint32",
          "name": "id",
          "type": "uint32"
        },
        {
          "internalType": "uint32",
          "name": "automation",
          "type": "uint32"
        }
      ],
      "name": "addAutomationToCondition",
      "outputs": [
        {
          "internalType": "bool",
          "name": "",
          "type": "bool"
        }
      ],
      "stateMutability": "nonpayable",
      "type": "function"
    },
    {
      "inputs": [
        {
          "internalType": "uint32",
          "name": "_id",
          "type": "uint32"
        },
        {
          "components": [
            {
              "internalType": "uint256",
              "name": "healthFactor",
              "type": "uint256"
            },
            {
              "internalType": "enum IHealthFactorCondition.Comparison",
              "name": "comparison",
              "type": "uint8"
            },
            {
              "internalType": "bool",
              "name": "updateable",
              "type": "bool"
            }
          ],
          "internalType": "struct IHealthFactorCondition.Condition",
          "name": "condition",
          "type": "tuple"
        }
      ],
      "name": "addCondition",
      "outputs": [],
      "stateMutability": "nonpayable",
      "type": "function"
    },
    {
      "inputs": [
        {
          "internalType": "uint32",
          "name": "id",
          "type": "uint32"
        },
        {
          "internalType": "uint32",
          "name": "strategy",
          "type": "uint32"
        }
      ],
      "name": "addStrategyToCondition",
      "outputs": [
        {
          "internalType": "bool",
          "name": "",
          "type": "bool"
        }
      ],
      "stateMutability": "nonpayable",
      "type": "function"
    },
    {
      "inputs": [
        {
          "internalType": "address",
          "name": "wallet",
          "type": "address"
        },
        {
          "internalType": "uint32",
          "name": "id",
          "type": "uint32"
        }
      ],
      "name": "automations",
      "outputs": [
        {
          "internalType": "uint32[]",
          "name": "",
          "type": "uint32[]"
        }
      ],
      "stateMutability": "view",
      "type": "function"
    },
    {
      "inputs": [
        {
          "internalType": "address",
          "name": "wallet",
          "type": "address"
        },
        {
          "internalType": "uint32",
          "name": "id",
          "type": "uint32"
        }
      ],
      "name": "checkCondition",
      "outputs": [
        {
          "internalType": "uint8",
          "name": "",
          "type": "uint8"
        }
      ],
      "stateMutability": "view",
      "type": "function"
    },
    {
      "inputs": [
        {
          "internalType": "address",
          "name": "wallet",
          "type": "address"
        },
        {
          "internalType": "uint32",
          "name": "id",
          "type": "uint32"
        },
        {
          "internalType": "uint32",
          "name": "automationId",
          "type": "uint32"
        }
      ],
      "name": "conditionInAutomation",
      "outputs": [
        {
          "internalType": "bool",
          "name": "",
          "type": "bool"
        }
      ],
      "stateMutability": "view",
      "type": "function"
    },
    {
      "inputs": [
        {
          "internalType": "address",
          "name": "wallet",
          "type": "address"
        },
        {
          "internalType": "uint32",
          "name": "id",
          "type": "uint32"
        },
        {
          "internalType": "uint32",
          "name": "strategyId",
          "type": "uint32"
        }
      ],
      "name": "conditionInStrategy",
      "outputs": [
        {
          "internalType": "bool",
          "name": "",
          "type": "bool"
        }
      ],
      "stateMutability": "view",
      "type": "function"
    },
    {
      "inputs": [
        {
          "internalType": "uint32",
          "name": "_id",
          "type": "uint32"
        }
      ],
      "name": "deleteCondition",
      "outputs": [],
      "stateMutability": "nonpayable",
      "type": "function"
    },
    {
      "inputs": [
        {
          "internalType": "address",
          "name": "wallet",
          "type": "address"
        },
        {
          "internalType": "uint32",
          "name": "id",
          "type": "uint32"
        }
      ],
      "name": "isConditionActive",
      "outputs": [
        {
          "internalType": "bool",
          "name": "",
          "type": "bool"
        }
      ],
      "stateMutability": "view",
      "type": "function"
    },
    {
      "inputs": [
        {
          "internalType": "address",
          "name": "wallet",
          "type": "address"
        },
        {
          "internalType": "uint32",
          "name": "id",
          "type": "uint32"
        }
      ],
      "name": "isUpdateable",
      "outputs": [
        {
          "internalType": "bool",
          "name": "",
          "type": "bool"
        }
      ],
      "stateMutability": "view",
      "type": "function"
    },
    {
      "inputs": [],
      "name": "pool",
      "outputs": [
        {
          "internalType": "address",
          "name": "",
          "type": "address"
        }
      ],
      "stateMutability": "view",
      "type": "function"
    },
    {
      "inputs": [
        {
          "internalType": "uint32",
          "name": "id",
          "type": "uint32"
        },
        {
          "internalType": "uint32",
          "name": "automation",
          "type": "uint32"
        }
      ],
      "name": "removeAutomationFromCondition",
      "outputs": [
        {
          "internalType": "bool",
          "name": "",
          "type": "bool"
        }
      ],
      "stateMutability": "nonpayable",
      "type": "function"
    },
    {
      "inputs": [
        {
          "internalType": "uint32",
          "name": "id",
          "type": "uint32"
        },
        {
          "internalType": "uint32",
          "name": "strategy",
          "type": "uint32"
        }
      ],
      "name": "removeStrategyFromCondition",
      "outputs": [
        {
          "internalType": "bool",
          "name": "",
          "type": "bool"
        }
      ],
      "stateMutability": "nonpayable",
      "type": "function"
    },
    {
      "inputs": [
        {
          "internalType": "address",
          "name": "wallet",
          "type": "address"
        },
        {
          "internalType": "uint32",
          "name": "id",
          "type": "uint32"
        }
      ],
      "name": "strategies",
      "outputs": [
        {
          "internalType": "uint32[]",
          "name": "",
          "type": "uint32[]"
        }
      ],
      "stateMutability": "view",
      "type": "function"
    },
    {
      "inputs": [
        {
          "internalType": "bytes4",
          "name": "interfaceId",
          "type": "bytes4"
        }
      ],
      "name": "supportsInterface",
      "outputs": [
        {
          "internalType": "bool",
          "name": "",
          "type": "bool"
        }
      ],
      "stateMutability": "pure",
      "type": "function"
    },
    {
      "inputs": [
        {
          "internalType": "uint32",
          "name": "_id",
          "type": "uint32"
        }
      ],
      "name": "updateCondition",
      "outputs": [
        {
          "internalType": "bool",
          "name": "",
          "type": "bool"
        }
      ],
      "stateMutability": "view",
      "type": "function"
    },
    {
      "inputs": [
        {
          "internalType": "address",
          "name": "_wallet",
          "type": "address"
        },
        {
          "internalType": "uint32",
          "name": "_id",
          "type": "uint32"
        }
      ],
      "name": "walletCondition",
      "outputs": [
        {
          "components": [
            {
              "internalType": "uint256",
              "name": "healthFactor",
              "type": "uint256"
            },
            {
              "internalType": "enum IHealthFactorCondition.Comparison",
              "name": "comparison",
              "type": "uint8"
            },
            {
              "internalType": "bool",
              "name": "updateable",
              "type": "bool"
            }
          ],
          "internalType": "struct IHealthFactorCondition.Condition",
          "name": "",
          "type": "tuple"
        }
      ],
      "stateMutability": "view",
      "type": "function"
    }
  ],
  "bytecode": "0x60a060405234801561001057600080fd5b5060405161314e38038061314e833981810160405281019061003291906100cf565b8073ffffffffffffffffffffffffffffffffffffffff1660808173ffffffffffffffffffffffffffffffffffffffff1681525050506100fc565b600080fd5b600073ffffffffffffffffffffffffffffffffffffffff82169050919050565b600061009c82610071565b9050919050565b6100ac81610091565b81146100b757600080fd5b50565b6000815190506100c9816100a3565b92915050565b6000602082840312156100e5576100e461006c565b5b60006100f3848285016100ba565b91505092915050565b60805161303061011e60003960008181610cfb01526114bd01526130306000f3fe608060405234801561001057600080fd5b506004361061010b5760003560e01c806357182cae116100a257806389a78a031161007157806389a78a03146103165780638a4914c214610346578063d8cd9c1b14610376578063e5012fb4146103a6578063eec93dd0146103d65761010b565b806357182cae1461026a5780636f2b9aff1461029a57806372201cf1146102ca5780638455c3d0146102e65761010b565b806314b0af70116100de57806314b0af70146101bc57806316f0115b146101ec578063384c879d1461020a5780634fdcabb81461023a5761010b565b806301ffc9a714610110578063023ef5a91461014057806303d049bb146101705780631245f298146101a0575b600080fd5b61012a6004803603810190610125919061261e565b610406565b6040516101379190612666565b60405180910390f35b61015a600480360381019061015591906126bd565b610470565b6040516101679190612666565b60405180910390f35b61018a600480360381019061018591906126fd565b6107a1565b6040516101979190612666565b60405180910390f35b6101ba60048036038101906101b591906126fd565b610817565b005b6101d660048036038101906101d191906126bd565b6108b2565b6040516101e39190612666565b60405180910390f35b6101f4610cf9565b604051610201919061276b565b60405180910390f35b610224600480360381019061021f91906127b2565b610d1d565b60405161023191906128b0565b60405180910390f35b610254600480360381019061024f91906127b2565b610dfe565b6040516102619190612666565b60405180910390f35b610284600480360381019061027f91906127b2565b610e72565b6040516102919190612666565b60405180910390f35b6102b460048036038101906102af91906127b2565b610ee9565b6040516102c191906129b3565b60405180910390f35b6102e460048036038101906102df91906129f2565b610fc0565b005b61030060048036038101906102fb9190612a32565b6111cf565b60405161030d9190612666565b60405180910390f35b610330600480360381019061032b91906127b2565b6113ed565b60405161033d9190612aa1565b60405180910390f35b610360600480360381019061035b91906126bd565b611755565b60405161036d9190612666565b60405180910390f35b610390600480360381019061038b9190612a32565b611b9d565b60405161039d9190612666565b60405180910390f35b6103c060048036038101906103bb91906126bd565b611db8565b6040516103cd9190612666565b60405180910390f35b6103f060048036038101906103eb91906127b2565b6120e8565b6040516103fd91906128b0565b60405180910390f35b60007f732d321f000000000000000000000000000000000000000000000000000000007bffffffffffffffffffffffffffffffffffffffffffffffffffffffff1916827bffffffffffffffffffffffffffffffffffffffffffffffffffffffff1916149050919050565b600082600460003373ffffffffffffffffffffffffffffffffffffffff1673ffffffffffffffffffffffffffffffffffffffff16815260200190815260200160002060008263ffffffff1663ffffffff16815260200190815260200160002060009054906101000a900460ff16610513576040517f7c748e2900000000000000000000000000000000000000000000000000000000815260040160405180910390fd5b8260008163ffffffff1603610554576040517ff5d2101e00000000000000000000000000000000000000000000000000000000815260040160405180910390fd5b61055f3386866111cf565b15610596576040517f433aca2900000000000000000000000000000000000000000000000000000000815260040160405180910390fd5b600160003373ffffffffffffffffffffffffffffffffffffffff1673ffffffffffffffffffffffffffffffffffffffff16815260200190815260200160002060008663ffffffff1663ffffffff1681526020019081526020016000208490806001815401808255809150506001900390600052602060002090600891828204019190066004029091909190916101000a81548163ffffffff021916908363ffffffff16021790555060018060003373ffffffffffffffffffffffffffffffffffffffff1673ffffffffffffffffffffffffffffffffffffffff16815260200190815260200160002060008763ffffffff1663ffffffff168152602001908152602001600020805490506106a99190612aeb565b600360003373ffffffffffffffffffffffffffffffffffffffff1673ffffffffffffffffffffffffffffffffffffffff16815260200190815260200160002060008763ffffffff1663ffffffff16815260200190815260200160002060008663ffffffff1663ffffffff16815260200190815260200160002060006101000a81548163ffffffff021916908363ffffffff1602179055508463ffffffff163373ffffffffffffffffffffffffffffffffffffffff167f64ed0b78fd4903b0c4a53da49298cec5f2ab5e723bbe6ba4602be84cc8c5fc658660405161078d9190612b2e565b60405180910390a360019250505092915050565b6000600560003373ffffffffffffffffffffffffffffffffffffffff1673ffffffffffffffffffffffffffffffffffffffff16815260200190815260200160002060008363ffffffff1663ffffffff16815260200190815260200160002060010160019054906101000a900460ff169050919050565b610820816121c8565b600560003373ffffffffffffffffffffffffffffffffffffffff1673ffffffffffffffffffffffffffffffffffffffff16815260200190815260200160002060008263ffffffff1663ffffffff1681526020019081526020016000206000808201600090556001820160006101000a81549060ff02191690556001820160016101000a81549060ff0219169055505050565b600082600460003373ffffffffffffffffffffffffffffffffffffffff1673ffffffffffffffffffffffffffffffffffffffff16815260200190815260200160002060008263ffffffff1663ffffffff16815260200190815260200160002060009054906101000a900460ff16610955576040517f7c748e2900000000000000000000000000000000000000000000000000000000815260040160405180910390fd5b610960338585611b9d565b610996576040517fb1e4568000000000000000000000000000000000000000000000000000000000815260040160405180910390fd5b60008060003373ffffffffffffffffffffffffffffffffffffffff1673ffffffffffffffffffffffffffffffffffffffff16815260200190815260200160002060008663ffffffff1663ffffffff16815260200190815260200160002090506000600260003373ffffffffffffffffffffffffffffffffffffffff1673ffffffffffffffffffffffffffffffffffffffff16815260200190815260200160002060008763ffffffff1663ffffffff16815260200190815260200160002060008663ffffffff1663ffffffff16815260200190815260200160002060009054906101000a900463ffffffff169050600060018380549050610a969190612aeb565b90508163ffffffff168114610bc9576000838281548110610aba57610ab9612b49565b5b90600052602060002090600891828204019190066004029054906101000a900463ffffffff16905082600260003373ffffffffffffffffffffffffffffffffffffffff1673ffffffffffffffffffffffffffffffffffffffff16815260200190815260200160002060008a63ffffffff1663ffffffff16815260200190815260200160002060008363ffffffff1663ffffffff16815260200190815260200160002060006101000a81548163ffffffff021916908363ffffffff16021790555080848463ffffffff1681548110610b9457610b93612b49565b5b90600052602060002090600891828204019190066004026101000a81548163ffffffff021916908363ffffffff160217905550505b82805480610bda57610bd9612b78565b5b60019003818190600052602060002090600891828204019190066004026101000a81549063ffffffff02191690559055600260003373ffffffffffffffffffffffffffffffffffffffff1673ffffffffffffffffffffffffffffffffffffffff16815260200190815260200160002060008863ffffffff1663ffffffff16815260200190815260200160002060008763ffffffff1663ffffffff16815260200190815260200160002060006101000a81549063ffffffff02191690558663ffffffff163373ffffffffffffffffffffffffffffffffffffffff167fc29fe8f04eaa995e540803e6abbd839f149e3b6b8dc9d66f7b411e6ad92f1ebf88604051610ce39190612b2e565b60405180910390a3600194505050505092915050565b7f000000000000000000000000000000000000000000000000000000000000000081565b6060600160008473ffffffffffffffffffffffffffffffffffffffff1673ffffffffffffffffffffffffffffffffffffffff16815260200190815260200160002060008363ffffffff1663ffffffff168152602001908152602001600020805480602002602001604051908101604052809291908181526020018280548015610df157602002820191906000526020600020906000905b82829054906101000a900463ffffffff1663ffffffff1681526020019060040190602082600301049283019260010382029150808411610db45790505b5050505050905092915050565b6000600460008473ffffffffffffffffffffffffffffffffffffffff1673ffffffffffffffffffffffffffffffffffffffff16815260200190815260200160002060008363ffffffff1663ffffffff16815260200190815260200160002060009054906101000a900460ff16905092915050565b6000600560008473ffffffffffffffffffffffffffffffffffffffff1673ffffffffffffffffffffffffffffffffffffffff16815260200190815260200160002060008363ffffffff1663ffffffff16815260200190815260200160002060010160019054906101000a900460ff16905092915050565b610ef161258c565b600560008473ffffffffffffffffffffffffffffffffffffffff1673ffffffffffffffffffffffffffffffffffffffff16815260200190815260200160002060008363ffffffff1663ffffffff168152602001908152602001600020604051806060016040529081600082015481526020016001820160009054906101000a900460ff166005811115610f8757610f866128eb565b5b6005811115610f9957610f986128eb565b5b81526020016001820160019054906101000a900460ff161515151581525050905092915050565b81600460003373ffffffffffffffffffffffffffffffffffffffff1673ffffffffffffffffffffffffffffffffffffffff16815260200190815260200160002060008263ffffffff1663ffffffff16815260200190815260200160002060009054906101000a900460ff1615611062576040517ff41867c000000000000000000000000000000000000000000000000000000000815260040160405180910390fd5b81670de0b6b3a7640000816000013510156110a9576040517f7bf5cacd00000000000000000000000000000000000000000000000000000000815260040160405180910390fd5b6005808111156110bc576110bb6128eb565b5b8160200160208101906110cf9190612bcc565b60058111156110e1576110e06128eb565b5b1115611119576040517fd9e2f2ed00000000000000000000000000000000000000000000000000000000815260040160405180910390fd5b82600560003373ffffffffffffffffffffffffffffffffffffffff1673ffffffffffffffffffffffffffffffffffffffff16815260200190815260200160002060008663ffffffff1663ffffffff16815260200190815260200160002081816111829190612e4a565b90505061118e8461242f565b7fcc85ae252c6a8596cda840060618021921a57bbdcfc4cb48c0f8ffbf40c3bfd98433856040516111c193929190612f21565b60405180910390a150505050565b600080600360008673ffffffffffffffffffffffffffffffffffffffff1673ffffffffffffffffffffffffffffffffffffffff16815260200190815260200160002060008563ffffffff1663ffffffff16815260200190815260200160002060008463ffffffff1663ffffffff16815260200190815260200160002060009054906101000a900463ffffffff1663ffffffff1690506000600160008773ffffffffffffffffffffffffffffffffffffffff1673ffffffffffffffffffffffffffffffffffffffff16815260200190815260200160002060008663ffffffff1663ffffffff1681526020019081526020016000208054905014806113315750600160008673ffffffffffffffffffffffffffffffffffffffff1673ffffffffffffffffffffffffffffffffffffffff16815260200190815260200160002060008563ffffffff1663ffffffff168152602001908152602001600020805490508110155b156113405760009150506113e6565b8263ffffffff16600160008773ffffffffffffffffffffffffffffffffffffffff1673ffffffffffffffffffffffffffffffffffffffff16815260200190815260200160002060008663ffffffff1663ffffffff16815260200190815260200160002082815481106113b5576113b4612b49565b5b90600052602060002090600891828204019190066004029054906101000a900463ffffffff1663ffffffff16149150505b9392505050565b600080600560008573ffffffffffffffffffffffffffffffffffffffff1673ffffffffffffffffffffffffffffffffffffffff16815260200190815260200160002060008463ffffffff1663ffffffff168152602001908152602001600020604051806060016040529081600082015481526020016001820160009054906101000a900460ff166005811115611486576114856128eb565b5b6005811115611498576114976128eb565b5b81526020016001820160019054906101000a900460ff161515151581525050905060007f000000000000000000000000000000000000000000000000000000000000000073ffffffffffffffffffffffffffffffffffffffff1663bf92857c866040518263ffffffff1660e01b8152600401611514919061276b565b60c060405180830381865afa158015611531573d6000803e3d6000fd5b505050506040513d601f19601f820116820180604052508101906115559190612f6d565b95505050505050600160058111156115705761156f6128eb565b5b82602001516005811115611587576115866128eb565b5b14806115bb5750600360058111156115a2576115a16128eb565b5b826020015160058111156115b9576115b86128eb565b5b145b156115d85781600001518111156115d75760019250505061174f565b5b600060058111156115ec576115eb6128eb565b5b82602001516005811115611603576116026128eb565b5b148061163757506004600581111561161e5761161d6128eb565b5b82602001516005811115611635576116346128eb565b5b145b156116545781600001518110156116535760019250505061174f565b5b60026005811115611668576116676128eb565b5b8260200151600581111561167f5761167e6128eb565b5b14806116b357506003600581111561169a576116996128eb565b5b826020015160058111156116b1576116b06128eb565b5b145b806116e65750600460058111156116cd576116cc6128eb565b5b826020015160058111156116e4576116e36128eb565b5b145b1561170257816000015181036117015760019250505061174f565b5b600580811115611715576117146128eb565b5b8260200151600581111561172c5761172b6128eb565b5b0361174857816000015181146117475760019250505061174f565b5b6000925050505b92915050565b600082600460003373ffffffffffffffffffffffffffffffffffffffff1673ffffffffffffffffffffffffffffffffffffffff16815260200190815260200160002060008263ffffffff1663ffffffff16815260200190815260200160002060009054906101000a900460ff166117f8576040517f7c748e2900000000000000000000000000000000000000000000000000000000815260040160405180910390fd5b6118033385856111cf565b611839576040517f76f3058000000000000000000000000000000000000000000000000000000000815260040160405180910390fd5b6000600160003373ffffffffffffffffffffffffffffffffffffffff1673ffffffffffffffffffffffffffffffffffffffff16815260200190815260200160002060008663ffffffff1663ffffffff16815260200190815260200160002090506000600360003373ffffffffffffffffffffffffffffffffffffffff1673ffffffffffffffffffffffffffffffffffffffff16815260200190815260200160002060008763ffffffff1663ffffffff16815260200190815260200160002060008663ffffffff1663ffffffff16815260200190815260200160002060009054906101000a900463ffffffff16905060006001838054905061193a9190612aeb565b90508163ffffffff168114611a6d57600083828154811061195e5761195d612b49565b5b90600052602060002090600891828204019190066004029054906101000a900463ffffffff16905082600360003373ffffffffffffffffffffffffffffffffffffffff1673ffffffffffffffffffffffffffffffffffffffff16815260200190815260200160002060008a63ffffffff1663ffffffff16815260200190815260200160002060008363ffffffff1663ffffffff16815260200190815260200160002060006101000a81548163ffffffff021916908363ffffffff16021790555080848463ffffffff1681548110611a3857611a37612b49565b5b90600052602060002090600891828204019190066004026101000a81548163ffffffff021916908363ffffffff160217905550505b82805480611a7e57611a7d612b78565b5b60019003818190600052602060002090600891828204019190066004026101000a81549063ffffffff02191690559055600360003373ffffffffffffffffffffffffffffffffffffffff1673ffffffffffffffffffffffffffffffffffffffff16815260200190815260200160002060008863ffffffff1663ffffffff16815260200190815260200160002060008763ffffffff1663ffffffff16815260200190815260200160002060006101000a81549063ffffffff02191690558663ffffffff163373ffffffffffffffffffffffffffffffffffffffff167f2be6cc3208d4434b357c0fdd8ae07d6e1f69605413b29b13d68bbd943a225dea88604051611b879190612b2e565b60405180910390a3600194505050505092915050565b600080600260008673ffffffffffffffffffffffffffffffffffffffff1673ffffffffffffffffffffffffffffffffffffffff16815260200190815260200160002060008563ffffffff1663ffffffff16815260200190815260200160002060008463ffffffff1663ffffffff16815260200190815260200160002060009054906101000a900463ffffffff1663ffffffff16905060008060008773ffffffffffffffffffffffffffffffffffffffff1673ffffffffffffffffffffffffffffffffffffffff16815260200190815260200160002060008663ffffffff1663ffffffff168152602001908152602001600020805490501480611cfd57506000808673ffffffffffffffffffffffffffffffffffffffff1673ffffffffffffffffffffffffffffffffffffffff16815260200190815260200160002060008563ffffffff1663ffffffff168152602001908152602001600020805490508110155b15611d0c576000915050611db1565b8263ffffffff166000808773ffffffffffffffffffffffffffffffffffffffff1673ffffffffffffffffffffffffffffffffffffffff16815260200190815260200160002060008663ffffffff1663ffffffff1681526020019081526020016000208281548110611d8057611d7f612b49565b5b90600052602060002090600891828204019190066004029054906101000a900463ffffffff1663ffffffff16149150505b9392505050565b600082600460003373ffffffffffffffffffffffffffffffffffffffff1673ffffffffffffffffffffffffffffffffffffffff16815260200190815260200160002060008263ffffffff1663ffffffff16815260200190815260200160002060009054906101000a900460ff16611e5b576040517f7c748e2900000000000000000000000000000000000000000000000000000000815260040160405180910390fd5b8260008163ffffffff1603611e9c576040517ff5d2101e00000000000000000000000000000000000000000000000000000000815260040160405180910390fd5b611ea7338686611b9d565b15611ede576040517fcc52f16000000000000000000000000000000000000000000000000000000000815260040160405180910390fd5b6000803373ffffffffffffffffffffffffffffffffffffffff1673ffffffffffffffffffffffffffffffffffffffff16815260200190815260200160002060008663ffffffff1663ffffffff1681526020019081526020016000208490806001815401808255809150506001900390600052602060002090600891828204019190066004029091909190916101000a81548163ffffffff021916908363ffffffff16021790555060016000803373ffffffffffffffffffffffffffffffffffffffff1673ffffffffffffffffffffffffffffffffffffffff16815260200190815260200160002060008763ffffffff1663ffffffff16815260200190815260200160002080549050611ff09190612aeb565b600260003373ffffffffffffffffffffffffffffffffffffffff1673ffffffffffffffffffffffffffffffffffffffff16815260200190815260200160002060008763ffffffff1663ffffffff16815260200190815260200160002060008663ffffffff1663ffffffff16815260200190815260200160002060006101000a81548163ffffffff021916908363ffffffff1602179055508463ffffffff163373ffffffffffffffffffffffffffffffffffffffff167fe4fed7933c124d57c605c2c0c04bf0518034d885e739653e3cc6667526d65d16866040516120d49190612b2e565b60405180910390a360019250505092915050565b60606000808473ffffffffffffffffffffffffffffffffffffffff1673ffffffffffffffffffffffffffffffffffffffff16815260200190815260200160002060008363ffffffff1663ffffffff1681526020019081526020016000208054806020026020016040519081016040528092919081815260200182805480156121bb57602002820191906000526020600020906000905b82829054906101000a900463ffffffff1663ffffffff168152602001906004019060208260030104928301926001038202915080841161217e5790505b5050505050905092915050565b80600460003373ffffffffffffffffffffffffffffffffffffffff1673ffffffffffffffffffffffffffffffffffffffff16815260200190815260200160002060008263ffffffff1663ffffffff16815260200190815260200160002060009054906101000a900460ff16612269576040517f7c748e2900000000000000000000000000000000000000000000000000000000815260040160405180910390fd5b6000600160003373ffffffffffffffffffffffffffffffffffffffff1673ffffffffffffffffffffffffffffffffffffffff16815260200190815260200160002060008463ffffffff1663ffffffff168152602001908152602001600020805490501180612335575060008060003373ffffffffffffffffffffffffffffffffffffffff1673ffffffffffffffffffffffffffffffffffffffff16815260200190815260200160002060008463ffffffff1663ffffffff16815260200190815260200160002080549050115b1561236c576040517f7b28591300000000000000000000000000000000000000000000000000000000815260040160405180910390fd5b6000600460003373ffffffffffffffffffffffffffffffffffffffff1673ffffffffffffffffffffffffffffffffffffffff16815260200190815260200160002060008463ffffffff1663ffffffff16815260200190815260200160002060006101000a81548160ff0219169083151502179055508163ffffffff163373ffffffffffffffffffffffffffffffffffffffff167fb0f65a798e2cdda82f7d8ae7ab05d5c06b04d3f8470e4765ff56af507889d19c60405160405180910390a35050565b80600460003373ffffffffffffffffffffffffffffffffffffffff1673ffffffffffffffffffffffffffffffffffffffff16815260200190815260200160002060008263ffffffff1663ffffffff16815260200190815260200160002060009054906101000a900460ff16156124d1576040517ff41867c000000000000000000000000000000000000000000000000000000000815260040160405180910390fd5b8160008163ffffffff1603612512576040517ff5d2101e00000000000000000000000000000000000000000000000000000000815260040160405180910390fd5b6001600460003373ffffffffffffffffffffffffffffffffffffffff1673ffffffffffffffffffffffffffffffffffffffff16815260200190815260200160002060008563ffffffff1663ffffffff16815260200190815260200160002060006101000a81548160ff021916908315150217905550505050565b604051806060016040528060008152602001600060058111156125b2576125b16128eb565b5b81526020016000151581525090565b600080fd5b60007fffffffff0000000000000000000000000000000000000000000000000000000082169050919050565b6125fb816125c6565b811461260657600080fd5b50565b600081359050612618816125f2565b92915050565b600060208284031215612634576126336125c1565b5b600061264284828501612609565b91505092915050565b60008115159050919050565b6126608161264b565b82525050565b600060208201905061267b6000830184612657565b92915050565b600063ffffffff82169050919050565b61269a81612681565b81146126a557600080fd5b50565b6000813590506126b781612691565b92915050565b600080604083850312156126d4576126d36125c1565b5b60006126e2858286016126a8565b92505060206126f3858286016126a8565b9150509250929050565b600060208284031215612713576127126125c1565b5b6000612721848285016126a8565b91505092915050565b600073ffffffffffffffffffffffffffffffffffffffff82169050919050565b60006127558261272a565b9050919050565b6127658161274a565b82525050565b6000602082019050612780600083018461275c565b92915050565b61278f8161274a565b811461279a57600080fd5b50565b6000813590506127ac81612786565b92915050565b600080604083850312156127c9576127c86125c1565b5b60006127d78582860161279d565b92505060206127e8858286016126a8565b9150509250929050565b600081519050919050565b600082825260208201905092915050565b6000819050602082019050919050565b61282781612681565b82525050565b6000612839838361281e565b60208301905092915050565b6000602082019050919050565b600061285d826127f2565b61286781856127fd565b93506128728361280e565b8060005b838110156128a357815161288a888261282d565b975061289583612845565b925050600181019050612876565b5085935050505092915050565b600060208201905081810360008301526128ca8184612852565b905092915050565b6000819050919050565b6128e5816128d2565b82525050565b7f4e487b7100000000000000000000000000000000000000000000000000000000600052602160045260246000fd5b6006811061292b5761292a6128eb565b5b50565b600081905061293c8261291a565b919050565b600061294c8261292e565b9050919050565b61295c81612941565b82525050565b61296b8161264b565b82525050565b60608201600082015161298760008501826128dc565b50602082015161299a6020850182612953565b5060408201516129ad6040850182612962565b50505050565b60006060820190506129c86000830184612971565b92915050565b600080fd5b6000606082840312156129e9576129e86129ce565b5b81905092915050565b60008060808385031215612a0957612a086125c1565b5b6000612a17858286016126a8565b9250506020612a28858286016129d3565b9150509250929050565b600080600060608486031215612a4b57612a4a6125c1565b5b6000612a598682870161279d565b9350506020612a6a868287016126a8565b9250506040612a7b868287016126a8565b9150509250925092565b600060ff82169050919050565b612a9b81612a85565b82525050565b6000602082019050612ab66000830184612a92565b92915050565b7f4e487b7100000000000000000000000000000000000000000000000000000000600052601160045260246000fd5b6000612af6826128d2565b9150612b01836128d2565b9250828203905081811115612b1957612b18612abc565b5b92915050565b612b2881612681565b82525050565b6000602082019050612b436000830184612b1f565b92915050565b7f4e487b7100000000000000000000000000000000000000000000000000000000600052603260045260246000fd5b7f4e487b7100000000000000000000000000000000000000000000000000000000600052603160045260246000fd5b60068110612bb457600080fd5b50565b600081359050612bc681612ba7565b92915050565b600060208284031215612be257612be16125c1565b5b6000612bf084828501612bb7565b91505092915050565b612c02816128d2565b8114612c0d57600080fd5b50565b60008135612c1d81612bf9565b80915050919050565b60008160001b9050919050565b60007fffffffffffffffffffffffffffffffffffffffffffffffffffffffffffffffff612c5f84612c26565b9350801983169250808416831791505092915050565b6000819050919050565b6000612c9a612c95612c90846128d2565b612c75565b6128d2565b9050919050565b6000819050919050565b612cb482612c7f565b612cc7612cc082612ca1565b8354612c33565b8255505050565b60008135612cdb81612ba7565b80915050919050565b600060ff612cf184612c26565b9350801983169250808416831791505092915050565b6000612d128261292e565b9050919050565b6000819050919050565b612d2c82612d07565b612d3f612d3882612d19565b8354612ce4565b8255505050565b612d4f8161264b565b8114612d5a57600080fd5b50565b60008135612d6a81612d46565b80915050919050565b60008160081b9050919050565b600061ff00612d8e84612d73565b9350801983169250808416831791505092915050565b6000612daf8261264b565b9050919050565b6000819050919050565b612dc982612da4565b612ddc612dd582612db6565b8354612d80565b8255505050565b600081016000830180612df581612c10565b9050612e018184612cab565b505050600181016020830180612e1681612cce565b9050612e228184612d23565b505050600181016040830180612e3781612d5d565b9050612e438184612dc0565b5050505050565b612e548282612de3565b5050565b600081359050612e6781612bf9565b92915050565b6000612e7c6020840184612e58565b905092915050565b6000612e936020840184612bb7565b905092915050565b600081359050612eaa81612d46565b92915050565b6000612ebf6020840184612e9b565b905092915050565b60608201612ed86000830183612e6d565b612ee560008501826128dc565b50612ef36020830183612e84565b612f006020850182612953565b50612f0e6040830183612eb0565b612f1b6040850182612962565b50505050565b600060a082019050612f366000830186612b1f565b612f43602083018561275c565b612f506040830184612ec7565b949350505050565b600081519050612f6781612bf9565b92915050565b60008060008060008060c08789031215612f8a57612f896125c1565b5b6000612f9889828a01612f58565b9650506020612fa989828a01612f58565b9550506040612fba89828a01612f58565b9450506060612fcb89828a01612f58565b9350506080612fdc89828a01612f58565b92505060a0612fed89828a01612f58565b915050929550929550929556fea26469706673582212209cbfbe66f01453d453580987938a618cc144a3e388d60e34071f338839cd2e3164736f6c634300081c0033",
  "linkReferences": {},
  "deployedLinkReferences": {}
}