{
  "_format": "hh-sol-artifact-1",
  "contractName": "AaveV3PositionBalance",
  "sourceName": "contracts/condition/AaveV3PositionBalance.sol",
  "abi": [
    {
      "inputs": [
        {
          "internalType": "address",
          "name": "_pool",
          "type": "address"
        },
        {
          "internalType": "address",
          "name": "_WETH",
          "type": "address"
        }
      ],
      "stateMutability": "nonpayable",
      "type": "constructor"
    },
    {
      "inputs": [],
      "name": "ConditionAlreadyExist",
      "type": "error"
    },
    {
      "inputs": [],
      "name": "ConditionAlreadyInUseOfAutomation",
      "type": "error"
    },
    {
      "inputs": [],
      "name": "ConditionAlreadyInUseOfStrategy",
      "type": "error"
    },
    {
      "inputs": [],
      "name": "ConditionDoesNotExist",
      "type": "error"
    },
    {
      "inputs": [],
      "name": "ConditionIsInUse",
      "type": "error"
    },
    {
      "inputs": [],
      "name": "ConditionNotInUseOfAutomation",
      "type": "error"
    },
    {
      "inputs": [],
      "name": "ConditionNotInUseOfStrategy",
      "type": "error"
    },
    {
      "inputs": [],
      "name": "InvalidComparison",
      "type": "error"
    },
    {
      "inputs": [],
      "name": "InvalidID",
      "type": "error"
    },
    {
      "inputs": [],
      "name": "InvalidPositionType",
      "type": "error"
    },
    {
      "anonymous": false,
      "inputs": [
        {
          "indexed": true,
          "internalType": "address",
          "name": "wallet",
          "type": "address"
        },
        {
          "indexed": true,
          "internalType": "uint32",
          "name": "id",
          "type": "uint32"
        },
        {
          "indexed": false,
          "internalType": "uint32",
          "name": "automation",
          "type": "uint32"
        }
      ],
      "name": "AutomationAdded",
      "type": "event"
    },
    {
      "anonymous": false,
      "inputs": [
        {
          "indexed": true,
          "internalType": "address",
          "name": "wallet",
          "type": "address"
        },
        {
          "indexed": true,
          "internalType": "uint32",
          "name": "id",
          "type": "uint32"
        },
        {
          "indexed": false,
          "internalType": "uint32",
          "name": "automation",
          "type": "uint32"
        }
      ],
      "name": "AutomationRemoved",
      "type": "event"
    },
    {
      "anonymous": false,
      "inputs": [
        {
          "indexed": false,
          "internalType": "uint32",
          "name": "id",
          "type": "uint32"
        },
        {
          "indexed": false,
          "internalType": "address",
          "name": "wallet",
          "type": "address"
        },
        {
          "components": [
            {
              "internalType": "address",
              "name": "asset",
              "type": "address"
            },
            {
              "internalType": "uint256",
              "name": "balance",
              "type": "uint256"
            },
            {
              "internalType": "enum IAaveV3PositionBalance.PositionType",
              "name": "positionType",
              "type": "uint8"
            },
            {
              "internalType": "enum IAaveV3PositionBalance.Comparison",
              "name": "comparison",
              "type": "uint8"
            },
            {
              "internalType": "bool",
              "name": "updateable",
              "type": "bool"
            }
          ],
          "indexed": false,
          "internalType": "struct IAaveV3PositionBalance.Condition",
          "name": "condition",
          "type": "tuple"
        }
      ],
      "name": "ConditionAdded",
      "type": "event"
    },
    {
      "anonymous": false,
      "inputs": [
        {
          "indexed": true,
          "internalType": "address",
          "name": "wallet",
          "type": "address"
        },
        {
          "indexed": true,
          "internalType": "uint32",
          "name": "id",
          "type": "uint32"
        }
      ],
      "name": "ConditionDeleted",
      "type": "event"
    },
    {
      "anonymous": false,
      "inputs": [
        {
          "indexed": true,
          "internalType": "address",
          "name": "wallet",
          "type": "address"
        },
        {
          "indexed": true,
          "internalType": "uint32",
          "name": "id",
          "type": "uint32"
        },
        {
          "indexed": false,
          "internalType": "uint32",
          "name": "strategy",
          "type": "uint32"
        }
      ],
      "name": "StrategyAdded",
      "type": "event"
    },
    {
      "anonymous": false,
      "inputs": [
        {
          "indexed": true,
          "internalType": "address",
          "name": "wallet",
          "type": "address"
        },
        {
          "indexed": true,
          "internalType": "uint32",
          "name": "id",
          "type": "uint32"
        },
        {
          "indexed": false,
          "internalType": "uint32",
          "name": "strategy",
          "type": "uint32"
        }
      ],
      "name": "StrategyRemoved",
      "type": "event"
    },
    {
      "inputs": [],
      "name": "WETH",
      "outputs": [
        {
          "internalType": "address",
          "name": "",
          "type": "address"
        }
      ],
      "stateMutability": "view",
      "type": "function"
    },
    {
      "inputs": [
        {
          "internalType": "address",
          "name": "wallet",
          "type": "address"
        },
        {
          "internalType": "uint32",
          "name": "id",
          "type": "uint32"
        }
      ],
      "name": "activeCondition",
      "outputs": [
        {
          "internalType": "bool",
          "name": "",
          "type": "bool"
        }
      ],
      "stateMutability": "view",
      "type": "function"
    },
    {
      "inputs": [
        {
          "internalType": "uint32",
          "name": "id",
          "type": "uint32"
        },
        {
          "internalType": "uint32",
          "name": "automation",
          "type": "uint32"
        }
      ],
      "name": "addAutomationToCondition",
      "outputs": [
        {
          "internalType": "bool",
          "name": "",
          "type": "bool"
        }
      ],
      "stateMutability": "nonpayable",
      "type": "function"
    },
    {
      "inputs": [
        {
          "internalType": "uint32",
          "name": "_id",
          "type": "uint32"
        },
        {
          "components": [
            {
              "internalType": "address",
              "name": "asset",
              "type": "address"
            },
            {
              "internalType": "uint256",
              "name": "balance",
              "type": "uint256"
            },
            {
              "internalType": "enum IAaveV3PositionBalance.PositionType",
              "name": "positionType",
              "type": "uint8"
            },
            {
              "internalType": "enum IAaveV3PositionBalance.Comparison",
              "name": "comparison",
              "type": "uint8"
            },
            {
              "internalType": "bool",
              "name": "updateable",
              "type": "bool"
            }
          ],
          "internalType": "struct IAaveV3PositionBalance.Condition",
          "name": "condition",
          "type": "tuple"
        }
      ],
      "name": "addCondition",
      "outputs": [],
      "stateMutability": "nonpayable",
      "type": "function"
    },
    {
      "inputs": [
        {
          "internalType": "uint32",
          "name": "id",
          "type": "uint32"
        },
        {
          "internalType": "uint32",
          "name": "strategy",
          "type": "uint32"
        }
      ],
      "name": "addStrategyToCondition",
      "outputs": [
        {
          "internalType": "bool",
          "name": "",
          "type": "bool"
        }
      ],
      "stateMutability": "nonpayable",
      "type": "function"
    },
    {
      "inputs": [
        {
          "internalType": "address",
          "name": "wallet",
          "type": "address"
        },
        {
          "internalType": "uint32",
          "name": "id",
          "type": "uint32"
        }
      ],
      "name": "automations",
      "outputs": [
        {
          "internalType": "uint32[]",
          "name": "",
          "type": "uint32[]"
        }
      ],
      "stateMutability": "view",
      "type": "function"
    },
    {
      "inputs": [
        {
          "internalType": "address",
          "name": "wallet",
          "type": "address"
        },
        {
          "internalType": "uint32",
          "name": "id",
          "type": "uint32"
        }
      ],
      "name": "checkCondition",
      "outputs": [
        {
          "internalType": "uint8",
          "name": "",
          "type": "uint8"
        }
      ],
      "stateMutability": "view",
      "type": "function"
    },
    {
      "inputs": [
        {
          "internalType": "address",
          "name": "wallet",
          "type": "address"
        },
        {
          "internalType": "uint32",
          "name": "id",
          "type": "uint32"
        },
        {
          "internalType": "uint32",
          "name": "automationId",
          "type": "uint32"
        }
      ],
      "name": "conditionInAutomation",
      "outputs": [
        {
          "internalType": "bool",
          "name": "",
          "type": "bool"
        }
      ],
      "stateMutability": "view",
      "type": "function"
    },
    {
      "inputs": [
        {
          "internalType": "address",
          "name": "wallet",
          "type": "address"
        },
        {
          "internalType": "uint32",
          "name": "id",
          "type": "uint32"
        },
        {
          "internalType": "uint32",
          "name": "strategyId",
          "type": "uint32"
        }
      ],
      "name": "conditionInStrategy",
      "outputs": [
        {
          "internalType": "bool",
          "name": "",
          "type": "bool"
        }
      ],
      "stateMutability": "view",
      "type": "function"
    },
    {
      "inputs": [
        {
          "internalType": "uint32",
          "name": "_id",
          "type": "uint32"
        }
      ],
      "name": "deleteCondition",
      "outputs": [],
      "stateMutability": "nonpayable",
      "type": "function"
    },
    {
      "inputs": [
        {
          "internalType": "address",
          "name": "wallet",
          "type": "address"
        },
        {
          "internalType": "uint32",
          "name": "id",
          "type": "uint32"
        }
      ],
      "name": "isConditionActive",
      "outputs": [
        {
          "internalType": "bool",
          "name": "",
          "type": "bool"
        }
      ],
      "stateMutability": "view",
      "type": "function"
    },
    {
      "inputs": [
        {
          "internalType": "address",
          "name": "wallet",
          "type": "address"
        },
        {
          "internalType": "uint32",
          "name": "id",
          "type": "uint32"
        }
      ],
      "name": "isUpdateable",
      "outputs": [
        {
          "internalType": "bool",
          "name": "",
          "type": "bool"
        }
      ],
      "stateMutability": "view",
      "type": "function"
    },
    {
      "inputs": [],
      "name": "pool",
      "outputs": [
        {
          "internalType": "address",
          "name": "",
          "type": "address"
        }
      ],
      "stateMutability": "view",
      "type": "function"
    },
    {
      "inputs": [
        {
          "internalType": "uint32",
          "name": "id",
          "type": "uint32"
        },
        {
          "internalType": "uint32",
          "name": "automation",
          "type": "uint32"
        }
      ],
      "name": "removeAutomationFromCondition",
      "outputs": [
        {
          "internalType": "bool",
          "name": "",
          "type": "bool"
        }
      ],
      "stateMutability": "nonpayable",
      "type": "function"
    },
    {
      "inputs": [
        {
          "internalType": "uint32",
          "name": "id",
          "type": "uint32"
        },
        {
          "internalType": "uint32",
          "name": "strategy",
          "type": "uint32"
        }
      ],
      "name": "removeStrategyFromCondition",
      "outputs": [
        {
          "internalType": "bool",
          "name": "",
          "type": "bool"
        }
      ],
      "stateMutability": "nonpayable",
      "type": "function"
    },
    {
      "inputs": [
        {
          "internalType": "address",
          "name": "wallet",
          "type": "address"
        },
        {
          "internalType": "uint32",
          "name": "id",
          "type": "uint32"
        }
      ],
      "name": "strategies",
      "outputs": [
        {
          "internalType": "uint32[]",
          "name": "",
          "type": "uint32[]"
        }
      ],
      "stateMutability": "view",
      "type": "function"
    },
    {
      "inputs": [
        {
          "internalType": "bytes4",
          "name": "interfaceId",
          "type": "bytes4"
        }
      ],
      "name": "supportsInterface",
      "outputs": [
        {
          "internalType": "bool",
          "name": "",
          "type": "bool"
        }
      ],
      "stateMutability": "pure",
      "type": "function"
    },
    {
      "inputs": [
        {
          "internalType": "uint32",
          "name": "_id",
          "type": "uint32"
        }
      ],
      "name": "updateCondition",
      "outputs": [
        {
          "internalType": "bool",
          "name": "",
          "type": "bool"
        }
      ],
      "stateMutability": "view",
      "type": "function"
    },
    {
      "inputs": [
        {
          "internalType": "address",
          "name": "wallet",
          "type": "address"
        },
        {
          "internalType": "uint32",
          "name": "id",
          "type": "uint32"
        }
      ],
      "name": "walletCondition",
      "outputs": [
        {
          "components": [
            {
              "internalType": "address",
              "name": "asset",
              "type": "address"
            },
            {
              "internalType": "uint256",
              "name": "balance",
              "type": "uint256"
            },
            {
              "internalType": "enum IAaveV3PositionBalance.PositionType",
              "name": "positionType",
              "type": "uint8"
            },
            {
              "internalType": "enum IAaveV3PositionBalance.Comparison",
              "name": "comparison",
              "type": "uint8"
            },
            {
              "internalType": "bool",
              "name": "updateable",
              "type": "bool"
            }
          ],
          "internalType": "struct IAaveV3PositionBalance.Condition",
          "name": "",
          "type": "tuple"
        }
      ],
      "stateMutability": "view",
      "type": "function"
    }
  ],
  "bytecode": "0x60c060405234801561001057600080fd5b50604051613cc8380380613cc883398181016040528101906100329190610104565b8173ffffffffffffffffffffffffffffffffffffffff1660808173ffffffffffffffffffffffffffffffffffffffff16815250508073ffffffffffffffffffffffffffffffffffffffff1660a08173ffffffffffffffffffffffffffffffffffffffff16815250505050610144565b600080fd5b600073ffffffffffffffffffffffffffffffffffffffff82169050919050565b60006100d1826100a6565b9050919050565b6100e1816100c6565b81146100ec57600080fd5b50565b6000815190506100fe816100d8565b92915050565b6000806040838503121561011b5761011a6100a1565b5b6000610129858286016100ef565b925050602061013a858286016100ef565b9150509250929050565b60805160a051613b3561019360003960008181611cdd01528181612807015281816129350152612a37015260008181610d9a01528181612791015281816128bf01526129c10152613b356000f3fe608060405234801561001057600080fd5b50600436106101215760003560e01c806357182cae116100ad578063ad5c464811610071578063ad5c46481461038c578063d39f2c96146103aa578063d8cd9c1b146103da578063e5012fb41461040a578063eec93dd01461043a57610121565b806357182cae1461029c5780636f2b9aff146102cc5780638455c3d0146102fc57806389a78a031461032c5780638a4914c21461035c57610121565b806314b0af70116100f457806314b0af70146101d257806316f0115b14610202578063384c879d146102205780634fcb3176146102505780634fdcabb81461026c57610121565b806301ffc9a714610126578063023ef5a91461015657806303d049bb146101865780631245f298146101b6575b600080fd5b610140600480360381019061013b9190612b95565b61046a565b60405161014d9190612bdd565b60405180910390f35b610170600480360381019061016b9190612c34565b6104d4565b60405161017d9190612bdd565b60405180910390f35b6101a0600480360381019061019b9190612c74565b610805565b6040516101ad9190612bdd565b60405180910390f35b6101d060048036038101906101cb9190612c74565b61087b565b005b6101ec60048036038101906101e79190612c34565b610951565b6040516101f99190612bdd565b60405180910390f35b61020a610d98565b6040516102179190612ce2565b60405180910390f35b61023a60048036038101906102359190612d29565b610dbc565b6040516102479190612e27565b60405180910390f35b61026a60048036038101906102659190612e6d565b610e9d565b005b61028660048036038101906102819190612d29565b611033565b6040516102939190612bdd565b60405180910390f35b6102b660048036038101906102b19190612d29565b6110a7565b6040516102c39190612bdd565b60405180910390f35b6102e660048036038101906102e19190612d29565b61111e565b6040516102f3919061300b565b60405180910390f35b61031660048036038101906103119190613026565b611286565b6040516103239190612bdd565b60405180910390f35b61034660048036038101906103419190612d29565b6114a4565b6040516103539190613095565b60405180910390f35b61037660048036038101906103719190612c34565b611893565b6040516103839190612bdd565b60405180910390f35b610394611cdb565b6040516103a19190612ce2565b60405180910390f35b6103c460048036038101906103bf9190612d29565b611cff565b6040516103d19190612bdd565b60405180910390f35b6103f460048036038101906103ef9190613026565b611d73565b6040516104019190612bdd565b60405180910390f35b610424600480360381019061041f9190612c34565b611f8e565b6040516104319190612bdd565b60405180910390f35b610454600480360381019061044f9190612d29565b6122be565b6040516104619190612e27565b60405180910390f35b60007f732d321f000000000000000000000000000000000000000000000000000000007bffffffffffffffffffffffffffffffffffffffffffffffffffffffff1916827bffffffffffffffffffffffffffffffffffffffffffffffffffffffff1916149050919050565b600082600460003373ffffffffffffffffffffffffffffffffffffffff1673ffffffffffffffffffffffffffffffffffffffff16815260200190815260200160002060008263ffffffff1663ffffffff16815260200190815260200160002060009054906101000a900460ff16610577576040517f7c748e2900000000000000000000000000000000000000000000000000000000815260040160405180910390fd5b8260008163ffffffff16036105b8576040517ff5d2101e00000000000000000000000000000000000000000000000000000000815260040160405180910390fd5b6105c3338686611286565b156105fa576040517f433aca2900000000000000000000000000000000000000000000000000000000815260040160405180910390fd5b600160003373ffffffffffffffffffffffffffffffffffffffff1673ffffffffffffffffffffffffffffffffffffffff16815260200190815260200160002060008663ffffffff1663ffffffff1681526020019081526020016000208490806001815401808255809150506001900390600052602060002090600891828204019190066004029091909190916101000a81548163ffffffff021916908363ffffffff16021790555060018060003373ffffffffffffffffffffffffffffffffffffffff1673ffffffffffffffffffffffffffffffffffffffff16815260200190815260200160002060008763ffffffff1663ffffffff1681526020019081526020016000208054905061070d91906130df565b600360003373ffffffffffffffffffffffffffffffffffffffff1673ffffffffffffffffffffffffffffffffffffffff16815260200190815260200160002060008763ffffffff1663ffffffff16815260200190815260200160002060008663ffffffff1663ffffffff16815260200190815260200160002060006101000a81548163ffffffff021916908363ffffffff1602179055508463ffffffff163373ffffffffffffffffffffffffffffffffffffffff167f64ed0b78fd4903b0c4a53da49298cec5f2ab5e723bbe6ba4602be84cc8c5fc65866040516107f19190613122565b60405180910390a360019250505092915050565b6000600560003373ffffffffffffffffffffffffffffffffffffffff1673ffffffffffffffffffffffffffffffffffffffff16815260200190815260200160002060008363ffffffff1663ffffffff16815260200190815260200160002060020160029054906101000a900460ff169050919050565b6108848161239e565b600560003373ffffffffffffffffffffffffffffffffffffffff1673ffffffffffffffffffffffffffffffffffffffff16815260200190815260200160002060008263ffffffff1663ffffffff168152602001908152602001600020600080820160006101000a81549073ffffffffffffffffffffffffffffffffffffffff021916905560018201600090556002820160006101000a81549060ff02191690556002820160016101000a81549060ff02191690556002820160026101000a81549060ff0219169055505050565b600082600460003373ffffffffffffffffffffffffffffffffffffffff1673ffffffffffffffffffffffffffffffffffffffff16815260200190815260200160002060008263ffffffff1663ffffffff16815260200190815260200160002060009054906101000a900460ff166109f4576040517f7c748e2900000000000000000000000000000000000000000000000000000000815260040160405180910390fd5b6109ff338585611d73565b610a35576040517fb1e4568000000000000000000000000000000000000000000000000000000000815260040160405180910390fd5b60008060003373ffffffffffffffffffffffffffffffffffffffff1673ffffffffffffffffffffffffffffffffffffffff16815260200190815260200160002060008663ffffffff1663ffffffff16815260200190815260200160002090506000600260003373ffffffffffffffffffffffffffffffffffffffff1673ffffffffffffffffffffffffffffffffffffffff16815260200190815260200160002060008763ffffffff1663ffffffff16815260200190815260200160002060008663ffffffff1663ffffffff16815260200190815260200160002060009054906101000a900463ffffffff169050600060018380549050610b3591906130df565b90508163ffffffff168114610c68576000838281548110610b5957610b5861313d565b5b90600052602060002090600891828204019190066004029054906101000a900463ffffffff16905082600260003373ffffffffffffffffffffffffffffffffffffffff1673ffffffffffffffffffffffffffffffffffffffff16815260200190815260200160002060008a63ffffffff1663ffffffff16815260200190815260200160002060008363ffffffff1663ffffffff16815260200190815260200160002060006101000a81548163ffffffff021916908363ffffffff16021790555080848463ffffffff1681548110610c3357610c3261313d565b5b90600052602060002090600891828204019190066004026101000a81548163ffffffff021916908363ffffffff160217905550505b82805480610c7957610c7861316c565b5b60019003818190600052602060002090600891828204019190066004026101000a81549063ffffffff02191690559055600260003373ffffffffffffffffffffffffffffffffffffffff1673ffffffffffffffffffffffffffffffffffffffff16815260200190815260200160002060008863ffffffff1663ffffffff16815260200190815260200160002060008763ffffffff1663ffffffff16815260200190815260200160002060006101000a81549063ffffffff02191690558663ffffffff163373ffffffffffffffffffffffffffffffffffffffff167fc29fe8f04eaa995e540803e6abbd839f149e3b6b8dc9d66f7b411e6ad92f1ebf88604051610d829190613122565b60405180910390a3600194505050505092915050565b7f000000000000000000000000000000000000000000000000000000000000000081565b6060600160008473ffffffffffffffffffffffffffffffffffffffff1673ffffffffffffffffffffffffffffffffffffffff16815260200190815260200160002060008363ffffffff1663ffffffff168152602001908152602001600020805480602002602001604051908101604052809291908181526020018280548015610e9057602002820191906000526020600020906000905b82829054906101000a900463ffffffff1663ffffffff1681526020019060040190602082600301049283019260010382029150808411610e535790505b5050505050905092915050565b80600280811115610eb157610eb0612ed5565b5b816040016020810190610ec491906131c0565b6002811115610ed657610ed5612ed5565b5b1115610f0e576040517f87d192c700000000000000000000000000000000000000000000000000000000815260040160405180910390fd5b600580811115610f2157610f20612ed5565b5b816060016020810190610f349190613212565b6005811115610f4657610f45612ed5565b5b1115610f7e576040517fd9e2f2ed00000000000000000000000000000000000000000000000000000000815260040160405180910390fd5b81600560003373ffffffffffffffffffffffffffffffffffffffff1673ffffffffffffffffffffffffffffffffffffffff16815260200190815260200160002060008563ffffffff1663ffffffff1681526020019081526020016000208181610fe79190613618565b905050610ff383612605565b7f9cf9f87bd030824ff6b01ebc106d8d95ec128c1c1d5f9a267bad8ff36006614b83338460405161102693929190613753565b60405180910390a1505050565b6000600460008473ffffffffffffffffffffffffffffffffffffffff1673ffffffffffffffffffffffffffffffffffffffff16815260200190815260200160002060008363ffffffff1663ffffffff16815260200190815260200160002060009054906101000a900460ff16905092915050565b6000600560008473ffffffffffffffffffffffffffffffffffffffff1673ffffffffffffffffffffffffffffffffffffffff16815260200190815260200160002060008363ffffffff1663ffffffff16815260200190815260200160002060020160029054906101000a900460ff16905092915050565b611126612ac3565b600560008473ffffffffffffffffffffffffffffffffffffffff1673ffffffffffffffffffffffffffffffffffffffff16815260200190815260200160002060008363ffffffff1663ffffffff1681526020019081526020016000206040518060a00160405290816000820160009054906101000a900473ffffffffffffffffffffffffffffffffffffffff1673ffffffffffffffffffffffffffffffffffffffff1673ffffffffffffffffffffffffffffffffffffffff168152602001600182015481526020016002820160009054906101000a900460ff16600281111561121257611211612ed5565b5b600281111561122457611223612ed5565b5b81526020016002820160019054906101000a900460ff16600581111561124d5761124c612ed5565b5b600581111561125f5761125e612ed5565b5b81526020016002820160029054906101000a900460ff161515151581525050905092915050565b600080600360008673ffffffffffffffffffffffffffffffffffffffff1673ffffffffffffffffffffffffffffffffffffffff16815260200190815260200160002060008563ffffffff1663ffffffff16815260200190815260200160002060008463ffffffff1663ffffffff16815260200190815260200160002060009054906101000a900463ffffffff1663ffffffff1690506000600160008773ffffffffffffffffffffffffffffffffffffffff1673ffffffffffffffffffffffffffffffffffffffff16815260200190815260200160002060008663ffffffff1663ffffffff1681526020019081526020016000208054905014806113e85750600160008673ffffffffffffffffffffffffffffffffffffffff1673ffffffffffffffffffffffffffffffffffffffff16815260200190815260200160002060008563ffffffff1663ffffffff168152602001908152602001600020805490508110155b156113f757600091505061149d565b8263ffffffff16600160008773ffffffffffffffffffffffffffffffffffffffff1673ffffffffffffffffffffffffffffffffffffffff16815260200190815260200160002060008663ffffffff1663ffffffff168152602001908152602001600020828154811061146c5761146b61313d565b5b90600052602060002090600891828204019190066004029054906101000a900463ffffffff1663ffffffff16149150505b9392505050565b600080600560008573ffffffffffffffffffffffffffffffffffffffff1673ffffffffffffffffffffffffffffffffffffffff16815260200190815260200160002060008463ffffffff1663ffffffff1681526020019081526020016000206040518060a00160405290816000820160009054906101000a900473ffffffffffffffffffffffffffffffffffffffff1673ffffffffffffffffffffffffffffffffffffffff1673ffffffffffffffffffffffffffffffffffffffff168152602001600182015481526020016002820160009054906101000a900460ff16600281111561159357611592612ed5565b5b60028111156115a5576115a4612ed5565b5b81526020016002820160019054906101000a900460ff1660058111156115ce576115cd612ed5565b5b60058111156115e0576115df612ed5565b5b81526020016002820160029054906101000a900460ff1615151515815250509050600061161582600001518360400151612762565b905060008173ffffffffffffffffffffffffffffffffffffffff166370a08231876040518263ffffffff1660e01b81526004016116529190612ce2565b602060405180830381865afa15801561166f573d6000803e3d6000fd5b505050506040513d601f19601f82011682018060405250810190611693919061379f565b9050600160058111156116a9576116a8612ed5565b5b836060015160058111156116c0576116bf612ed5565b5b14806116f45750600360058111156116db576116da612ed5565b5b836060015160058111156116f2576116f1612ed5565b5b145b15611712578260200151811115611711576001935050505061188d565b5b6000600581111561172657611725612ed5565b5b8360600151600581111561173d5761173c612ed5565b5b148061177157506004600581111561175857611757612ed5565b5b8360600151600581111561176f5761176e612ed5565b5b145b1561178f57826020015181101561178e576001935050505061188d565b5b600260058111156117a3576117a2612ed5565b5b836060015160058111156117ba576117b9612ed5565b5b14806117ee5750600360058111156117d5576117d4612ed5565b5b836060015160058111156117ec576117eb612ed5565b5b145b8061182157506004600581111561180857611807612ed5565b5b8360600151600581111561181f5761181e612ed5565b5b145b1561183e578260200151810361183d576001935050505061188d565b5b60058081111561185157611850612ed5565b5b8360600151600581111561186857611867612ed5565b5b036118855782602001518114611884576001935050505061188d565b5b600093505050505b92915050565b600082600460003373ffffffffffffffffffffffffffffffffffffffff1673ffffffffffffffffffffffffffffffffffffffff16815260200190815260200160002060008263ffffffff1663ffffffff16815260200190815260200160002060009054906101000a900460ff16611936576040517f7c748e2900000000000000000000000000000000000000000000000000000000815260040160405180910390fd5b611941338585611286565b611977576040517f76f3058000000000000000000000000000000000000000000000000000000000815260040160405180910390fd5b6000600160003373ffffffffffffffffffffffffffffffffffffffff1673ffffffffffffffffffffffffffffffffffffffff16815260200190815260200160002060008663ffffffff1663ffffffff16815260200190815260200160002090506000600360003373ffffffffffffffffffffffffffffffffffffffff1673ffffffffffffffffffffffffffffffffffffffff16815260200190815260200160002060008763ffffffff1663ffffffff16815260200190815260200160002060008663ffffffff1663ffffffff16815260200190815260200160002060009054906101000a900463ffffffff169050600060018380549050611a7891906130df565b90508163ffffffff168114611bab576000838281548110611a9c57611a9b61313d565b5b90600052602060002090600891828204019190066004029054906101000a900463ffffffff16905082600360003373ffffffffffffffffffffffffffffffffffffffff1673ffffffffffffffffffffffffffffffffffffffff16815260200190815260200160002060008a63ffffffff1663ffffffff16815260200190815260200160002060008363ffffffff1663ffffffff16815260200190815260200160002060006101000a81548163ffffffff021916908363ffffffff16021790555080848463ffffffff1681548110611b7657611b7561313d565b5b90600052602060002090600891828204019190066004026101000a81548163ffffffff021916908363ffffffff160217905550505b82805480611bbc57611bbb61316c565b5b60019003818190600052602060002090600891828204019190066004026101000a81549063ffffffff02191690559055600360003373ffffffffffffffffffffffffffffffffffffffff1673ffffffffffffffffffffffffffffffffffffffff16815260200190815260200160002060008863ffffffff1663ffffffff16815260200190815260200160002060008763ffffffff1663ffffffff16815260200190815260200160002060006101000a81549063ffffffff02191690558663ffffffff163373ffffffffffffffffffffffffffffffffffffffff167f2be6cc3208d4434b357c0fdd8ae07d6e1f69605413b29b13d68bbd943a225dea88604051611cc59190613122565b60405180910390a3600194505050505092915050565b7f000000000000000000000000000000000000000000000000000000000000000081565b6000600660008473ffffffffffffffffffffffffffffffffffffffff1673ffffffffffffffffffffffffffffffffffffffff16815260200190815260200160002060008363ffffffff1663ffffffff16815260200190815260200160002060009054906101000a900460ff16905092915050565b600080600260008673ffffffffffffffffffffffffffffffffffffffff1673ffffffffffffffffffffffffffffffffffffffff16815260200190815260200160002060008563ffffffff1663ffffffff16815260200190815260200160002060008463ffffffff1663ffffffff16815260200190815260200160002060009054906101000a900463ffffffff1663ffffffff16905060008060008773ffffffffffffffffffffffffffffffffffffffff1673ffffffffffffffffffffffffffffffffffffffff16815260200190815260200160002060008663ffffffff1663ffffffff168152602001908152602001600020805490501480611ed357506000808673ffffffffffffffffffffffffffffffffffffffff1673ffffffffffffffffffffffffffffffffffffffff16815260200190815260200160002060008563ffffffff1663ffffffff168152602001908152602001600020805490508110155b15611ee2576000915050611f87565b8263ffffffff166000808773ffffffffffffffffffffffffffffffffffffffff1673ffffffffffffffffffffffffffffffffffffffff16815260200190815260200160002060008663ffffffff1663ffffffff1681526020019081526020016000208281548110611f5657611f5561313d565b5b90600052602060002090600891828204019190066004029054906101000a900463ffffffff1663ffffffff16149150505b9392505050565b600082600460003373ffffffffffffffffffffffffffffffffffffffff1673ffffffffffffffffffffffffffffffffffffffff16815260200190815260200160002060008263ffffffff1663ffffffff16815260200190815260200160002060009054906101000a900460ff16612031576040517f7c748e2900000000000000000000000000000000000000000000000000000000815260040160405180910390fd5b8260008163ffffffff1603612072576040517ff5d2101e00000000000000000000000000000000000000000000000000000000815260040160405180910390fd5b61207d338686611d73565b156120b4576040517fcc52f16000000000000000000000000000000000000000000000000000000000815260040160405180910390fd5b6000803373ffffffffffffffffffffffffffffffffffffffff1673ffffffffffffffffffffffffffffffffffffffff16815260200190815260200160002060008663ffffffff1663ffffffff1681526020019081526020016000208490806001815401808255809150506001900390600052602060002090600891828204019190066004029091909190916101000a81548163ffffffff021916908363ffffffff16021790555060016000803373ffffffffffffffffffffffffffffffffffffffff1673ffffffffffffffffffffffffffffffffffffffff16815260200190815260200160002060008763ffffffff1663ffffffff168152602001908152602001600020805490506121c691906130df565b600260003373ffffffffffffffffffffffffffffffffffffffff1673ffffffffffffffffffffffffffffffffffffffff16815260200190815260200160002060008763ffffffff1663ffffffff16815260200190815260200160002060008663ffffffff1663ffffffff16815260200190815260200160002060006101000a81548163ffffffff021916908363ffffffff1602179055508463ffffffff163373ffffffffffffffffffffffffffffffffffffffff167fe4fed7933c124d57c605c2c0c04bf0518034d885e739653e3cc6667526d65d16866040516122aa9190613122565b60405180910390a360019250505092915050565b60606000808473ffffffffffffffffffffffffffffffffffffffff1673ffffffffffffffffffffffffffffffffffffffff16815260200190815260200160002060008363ffffffff1663ffffffff16815260200190815260200160002080548060200260200160405190810160405280929190818152602001828054801561239157602002820191906000526020600020906000905b82829054906101000a900463ffffffff1663ffffffff16815260200190600401906020826003010492830192600103820291508084116123545790505b5050505050905092915050565b80600460003373ffffffffffffffffffffffffffffffffffffffff1673ffffffffffffffffffffffffffffffffffffffff16815260200190815260200160002060008263ffffffff1663ffffffff16815260200190815260200160002060009054906101000a900460ff1661243f576040517f7c748e2900000000000000000000000000000000000000000000000000000000815260040160405180910390fd5b6000600160003373ffffffffffffffffffffffffffffffffffffffff1673ffffffffffffffffffffffffffffffffffffffff16815260200190815260200160002060008463ffffffff1663ffffffff16815260200190815260200160002080549050118061250b575060008060003373ffffffffffffffffffffffffffffffffffffffff1673ffffffffffffffffffffffffffffffffffffffff16815260200190815260200160002060008463ffffffff1663ffffffff16815260200190815260200160002080549050115b15612542576040517f7b28591300000000000000000000000000000000000000000000000000000000815260040160405180910390fd5b6000600460003373ffffffffffffffffffffffffffffffffffffffff1673ffffffffffffffffffffffffffffffffffffffff16815260200190815260200160002060008463ffffffff1663ffffffff16815260200190815260200160002060006101000a81548160ff0219169083151502179055508163ffffffff163373ffffffffffffffffffffffffffffffffffffffff167fb0f65a798e2cdda82f7d8ae7ab05d5c06b04d3f8470e4765ff56af507889d19c60405160405180910390a35050565b80600460003373ffffffffffffffffffffffffffffffffffffffff1673ffffffffffffffffffffffffffffffffffffffff16815260200190815260200160002060008263ffffffff1663ffffffff16815260200190815260200160002060009054906101000a900460ff16156126a7576040517ff41867c000000000000000000000000000000000000000000000000000000000815260040160405180910390fd5b8160008163ffffffff16036126e8576040517ff5d2101e00000000000000000000000000000000000000000000000000000000815260040160405180910390fd5b6001600460003373ffffffffffffffffffffffffffffffffffffffff1673ffffffffffffffffffffffffffffffffffffffff16815260200190815260200160002060008563ffffffff1663ffffffff16815260200190815260200160002060006101000a81548160ff021916908315150217905550505050565b600060028081111561277757612776612ed5565b5b82600281111561278a57612789612ed5565b5b03612891577f000000000000000000000000000000000000000000000000000000000000000073ffffffffffffffffffffffffffffffffffffffff166335ea6a75600073ffffffffffffffffffffffffffffffffffffffff168573ffffffffffffffffffffffffffffffffffffffff16146128055784612827565b7f00000000000000000000000000000000000000000000000000000000000000005b6040518263ffffffff1660e01b81526004016128439190612ce2565b6101e060405180830381865afa158015612861573d6000803e3d6000fd5b505050506040513d601f19601f820116820180604052508101906128859190613ad1565b61012001519050612abd565b600060028111156128a5576128a4612ed5565b5b8260028111156128b8576128b7612ed5565b5b036129bf577f000000000000000000000000000000000000000000000000000000000000000073ffffffffffffffffffffffffffffffffffffffff166335ea6a75600073ffffffffffffffffffffffffffffffffffffffff168573ffffffffffffffffffffffffffffffffffffffff16146129335784612955565b7f00000000000000000000000000000000000000000000000000000000000000005b6040518263ffffffff1660e01b81526004016129719190612ce2565b6101e060405180830381865afa15801561298f573d6000803e3d6000fd5b505050506040513d601f19601f820116820180604052508101906129b39190613ad1565b61010001519050612abd565b7f000000000000000000000000000000000000000000000000000000000000000073ffffffffffffffffffffffffffffffffffffffff166335ea6a75600073ffffffffffffffffffffffffffffffffffffffff168573ffffffffffffffffffffffffffffffffffffffff1614612a355784612a57565b7f00000000000000000000000000000000000000000000000000000000000000005b6040518263ffffffff1660e01b8152600401612a739190612ce2565b6101e060405180830381865afa158015612a91573d6000803e3d6000fd5b505050506040513d601f19601f82011682018060405250810190612ab59190613ad1565b610140015190505b92915050565b6040518060a00160405280600073ffffffffffffffffffffffffffffffffffffffff1681526020016000815260200160006002811115612b0657612b05612ed5565b5b815260200160006005811115612b1f57612b1e612ed5565b5b81526020016000151581525090565b6000604051905090565b600080fd5b60007fffffffff0000000000000000000000000000000000000000000000000000000082169050919050565b612b7281612b3d565b8114612b7d57600080fd5b50565b600081359050612b8f81612b69565b92915050565b600060208284031215612bab57612baa612b38565b5b6000612bb984828501612b80565b91505092915050565b60008115159050919050565b612bd781612bc2565b82525050565b6000602082019050612bf26000830184612bce565b92915050565b600063ffffffff82169050919050565b612c1181612bf8565b8114612c1c57600080fd5b50565b600081359050612c2e81612c08565b92915050565b60008060408385031215612c4b57612c4a612b38565b5b6000612c5985828601612c1f565b9250506020612c6a85828601612c1f565b9150509250929050565b600060208284031215612c8a57612c89612b38565b5b6000612c9884828501612c1f565b91505092915050565b600073ffffffffffffffffffffffffffffffffffffffff82169050919050565b6000612ccc82612ca1565b9050919050565b612cdc81612cc1565b82525050565b6000602082019050612cf76000830184612cd3565b92915050565b612d0681612cc1565b8114612d1157600080fd5b50565b600081359050612d2381612cfd565b92915050565b60008060408385031215612d4057612d3f612b38565b5b6000612d4e85828601612d14565b9250506020612d5f85828601612c1f565b9150509250929050565b600081519050919050565b600082825260208201905092915050565b6000819050602082019050919050565b612d9e81612bf8565b82525050565b6000612db08383612d95565b60208301905092915050565b6000602082019050919050565b6000612dd482612d69565b612dde8185612d74565b9350612de983612d85565b8060005b83811015612e1a578151612e018882612da4565b9750612e0c83612dbc565b925050600181019050612ded565b5085935050505092915050565b60006020820190508181036000830152612e418184612dc9565b905092915050565b600080fd5b600060a08284031215612e6457612e63612e49565b5b81905092915050565b60008060c08385031215612e8457612e83612b38565b5b6000612e9285828601612c1f565b9250506020612ea385828601612e4e565b9150509250929050565b612eb681612cc1565b82525050565b6000819050919050565b612ecf81612ebc565b82525050565b7f4e487b7100000000000000000000000000000000000000000000000000000000600052602160045260246000fd5b60038110612f1557612f14612ed5565b5b50565b6000819050612f2682612f04565b919050565b6000612f3682612f18565b9050919050565b612f4681612f2b565b82525050565b60068110612f5d57612f5c612ed5565b5b50565b6000819050612f6e82612f4c565b919050565b6000612f7e82612f60565b9050919050565b612f8e81612f73565b82525050565b612f9d81612bc2565b82525050565b60a082016000820151612fb96000850182612ead565b506020820151612fcc6020850182612ec6565b506040820151612fdf6040850182612f3d565b506060820151612ff26060850182612f85565b5060808201516130056080850182612f94565b50505050565b600060a0820190506130206000830184612fa3565b92915050565b60008060006060848603121561303f5761303e612b38565b5b600061304d86828701612d14565b935050602061305e86828701612c1f565b925050604061306f86828701612c1f565b9150509250925092565b600060ff82169050919050565b61308f81613079565b82525050565b60006020820190506130aa6000830184613086565b92915050565b7f4e487b7100000000000000000000000000000000000000000000000000000000600052601160045260246000fd5b60006130ea82612ebc565b91506130f583612ebc565b925082820390508181111561310d5761310c6130b0565b5b92915050565b61311c81612bf8565b82525050565b60006020820190506131376000830184613113565b92915050565b7f4e487b7100000000000000000000000000000000000000000000000000000000600052603260045260246000fd5b7f4e487b7100000000000000000000000000000000000000000000000000000000600052603160045260246000fd5b600381106131a857600080fd5b50565b6000813590506131ba8161319b565b92915050565b6000602082840312156131d6576131d5612b38565b5b60006131e4848285016131ab565b91505092915050565b600681106131fa57600080fd5b50565b60008135905061320c816131ed565b92915050565b60006020828403121561322857613227612b38565b5b6000613236848285016131fd565b91505092915050565b6000813561324c81612cfd565b80915050919050565b60008160001b9050919050565b600073ffffffffffffffffffffffffffffffffffffffff61328284613255565b9350801983169250808416831791505092915050565b6000819050919050565b60006132bd6132b86132b384612ca1565b613298565b612ca1565b9050919050565b60006132cf826132a2565b9050919050565b60006132e1826132c4565b9050919050565b6000819050919050565b6132fb826132d6565b61330e613307826132e8565b8354613262565b8255505050565b61331e81612ebc565b811461332957600080fd5b50565b6000813561333981613315565b80915050919050565b60007fffffffffffffffffffffffffffffffffffffffffffffffffffffffffffffffff61336e84613255565b9350801983169250808416831791505092915050565b600061339f61339a61339584612ebc565b613298565b612ebc565b9050919050565b6000819050919050565b6133b982613384565b6133cc6133c5826133a6565b8354613342565b8255505050565b600081356133e08161319b565b80915050919050565b600060ff6133f684613255565b9350801983169250808416831791505092915050565b600061341782612f18565b9050919050565b6000819050919050565b6134318261340c565b61344461343d8261341e565b83546133e9565b8255505050565b60008135613458816131ed565b80915050919050565b60008160081b9050919050565b600061ff0061347c84613461565b9350801983169250808416831791505092915050565b600061349d82612f60565b9050919050565b6000819050919050565b6134b782613492565b6134ca6134c3826134a4565b835461346e565b8255505050565b6134da81612bc2565b81146134e557600080fd5b50565b600081356134f5816134d1565b80915050919050565b60008160101b9050919050565b600062ff000061351a846134fe565b9350801983169250808416831791505092915050565b600061353b82612bc2565b9050919050565b6000819050919050565b61355582613530565b61356861356182613542565b835461350b565b8255505050565b6000810160008301806135818161323f565b905061358d81846132f2565b5050506001810160208301806135a28161332c565b90506135ae81846133b0565b5050506002810160408301806135c3816133d3565b90506135cf8184613428565b5050506002810160608301806135e48161344b565b90506135f081846134ae565b505050600281016080830180613605816134e8565b9050613611818461354c565b5050505050565b613622828261356f565b5050565b60006136356020840184612d14565b905092915050565b60008135905061364c81613315565b92915050565b6000613661602084018461363d565b905092915050565b600061367860208401846131ab565b905092915050565b600061368f60208401846131fd565b905092915050565b6000813590506136a6816134d1565b92915050565b60006136bb6020840184613697565b905092915050565b60a082016136d46000830183613626565b6136e16000850182612ead565b506136ef6020830183613652565b6136fc6020850182612ec6565b5061370a6040830183613669565b6137176040850182612f3d565b506137256060830183613680565b6137326060850182612f85565b5061374060808301836136ac565b61374d6080850182612f94565b50505050565b600060e0820190506137686000830186613113565b6137756020830185612cd3565b61378260408301846136c3565b949350505050565b60008151905061379981613315565b92915050565b6000602082840312156137b5576137b4612b38565b5b60006137c38482850161378a565b91505092915050565b600080fd5b6000601f19601f8301169050919050565b7f4e487b7100000000000000000000000000000000000000000000000000000000600052604160045260246000fd5b61381a826137d1565b810181811067ffffffffffffffff82111715613839576138386137e2565b5b80604052505050565b600061384c612b2e565b90506138588282613811565b919050565b600060208284031215613873576138726137cc565b5b61387d6020613842565b9050600061388d8482850161378a565b60008301525092915050565b60006fffffffffffffffffffffffffffffffff82169050919050565b6138be81613899565b81146138c957600080fd5b50565b6000815190506138db816138b5565b92915050565b600064ffffffffff82169050919050565b6138fb816138e1565b811461390657600080fd5b50565b600081519050613918816138f2565b92915050565b600061ffff82169050919050565b6139358161391e565b811461394057600080fd5b50565b6000815190506139528161392c565b92915050565b60008151905061396781612cfd565b92915050565b60006101e08284031215613984576139836137cc565b5b61398f6101e0613842565b9050600061399f8482850161385d565b60008301525060206139b3848285016138cc565b60208301525060406139c7848285016138cc565b60408301525060606139db848285016138cc565b60608301525060806139ef848285016138cc565b60808301525060a0613a03848285016138cc565b60a08301525060c0613a1784828501613909565b60c08301525060e0613a2b84828501613943565b60e083015250610100613a4084828501613958565b61010083015250610120613a5684828501613958565b61012083015250610140613a6c84828501613958565b61014083015250610160613a8284828501613958565b61016083015250610180613a98848285016138cc565b610180830152506101a0613aae848285016138cc565b6101a0830152506101c0613ac4848285016138cc565b6101c08301525092915050565b60006101e08284031215613ae857613ae7612b38565b5b6000613af68482850161396d565b9150509291505056fea26469706673582212205f5beb15e68d0e2a0855045b5bf07e24814021b7be59de8050b7ca6acb9a689164736f6c634300081c0033",
  "linkReferences": {},
  "deployedLinkReferences": {}
}