{
  "_format": "hh-sol-artifact-1",
  "contractName": "SendCoinAction",
  "sourceName": "contracts/action/SendCoinAction.sol",
  "abi": [
    {
      "inputs": [
        {
          "internalType": "uint256",
          "name": "amount",
          "type": "uint256"
        },
        {
          "internalType": "address",
          "name": "to",
          "type": "address"
        }
      ],
      "name": "sendCoins",
      "outputs": [
        {
          "components": [
            {
              "internalType": "address",
              "name": "target",
              "type": "address"
            },
            {
              "internalType": "uint256",
              "name": "value",
              "type": "uint256"
            },
            {
              "internalType": "bytes",
              "name": "data",
              "type": "bytes"
            }
          ],
          "internalType": "struct IAction.PluginExecution[]",
          "name": "",
          "type": "tuple[]"
        }
      ],
      "stateMutability": "pure",
      "type": "function"
    }
  ],
  "bytecode": "0x6080604052348015600f57600080fd5b506104aa8061001f6000396000f3fe608060405234801561001057600080fd5b506004361061002b5760003560e01c806365f7407e14610030575b600080fd5b61004a600480360381019061004591906101f4565b610060565b60405161005791906103f4565b60405180910390f35b60606000600167ffffffffffffffff81111561007f5761007e610416565b5b6040519080825280602002602001820160405280156100b857816020015b6100a5610124565b81526020019060019003908161009d5790505b50905060405180606001604052808473ffffffffffffffffffffffffffffffffffffffff168152602001858152602001604051806020016040528060008152508152508160008151811061010f5761010e610445565b5b60200260200101819052508091505092915050565b6040518060600160405280600073ffffffffffffffffffffffffffffffffffffffff16815260200160008152602001606081525090565b600080fd5b6000819050919050565b61017381610160565b811461017e57600080fd5b50565b6000813590506101908161016a565b92915050565b600073ffffffffffffffffffffffffffffffffffffffff82169050919050565b60006101c182610196565b9050919050565b6101d1816101b6565b81146101dc57600080fd5b50565b6000813590506101ee816101c8565b92915050565b6000806040838503121561020b5761020a61015b565b5b600061021985828601610181565b925050602061022a858286016101df565b9150509250929050565b600081519050919050565b600082825260208201905092915050565b6000819050602082019050919050565b610269816101b6565b82525050565b61027881610160565b82525050565b600081519050919050565b600082825260208201905092915050565b60005b838110156102b857808201518184015260208101905061029d565b60008484015250505050565b6000601f19601f8301169050919050565b60006102e08261027e565b6102ea8185610289565b93506102fa81856020860161029a565b610303816102c4565b840191505092915050565b60006060830160008301516103266000860182610260565b506020830151610339602086018261026f565b506040830151848203604086015261035182826102d5565b9150508091505092915050565b600061036a838361030e565b905092915050565b6000602082019050919050565b600061038a82610234565b610394818561023f565b9350836020820285016103a685610250565b8060005b858110156103e257848403895281516103c3858261035e565b94506103ce83610372565b925060208a019950506001810190506103aa565b50829750879550505050505092915050565b6000602082019050818103600083015261040e818461037f565b905092915050565b7f4e487b7100000000000000000000000000000000000000000000000000000000600052604160045260246000fd5b7f4e487b7100000000000000000000000000000000000000000000000000000000600052603260045260246000fdfea2646970667358221220601376c7fda8c5e75796cbfa3985362558d5946b794514a05ba4d6a5b3cc6be264736f6c634300081c0033",
  "linkReferences": {},
  "deployedLinkReferences": {}
}